:020000022000DC
:106000000000042079630200616302006363020000
:10601000656302006763020069630200000000001C
:106020000000000000000000000000006B630200A0
:106030006D630200000000006F63020071630200E4
:10604000459D02007363020005A202007363020013
:10605000736302007363020061A0020073630200B5
:1060600073630200736302007363020073630200D0
:1060700073630200736302007363020073630200C0
:1060800073630200C1720200736302007363020053
:106090005D73020073630200550203007363020024
:1060A0007363020073630200736302007363020090
:1060B0007363020073630200000000000000000030
:1060C0007363020073630200736302007363020070
:1060D0007363020073630200736302007363020060
:1060E0007363020073630200736302000000000028
:1060F00000000000736302000000000073630200F0
:10610000000000000000000000000000000000008F
:10611000000000000000000000000000000000007F
:10612000000000000000000000000000000000006F
:10613000000000000000000000000000000000005F
:10614000000000000000000000000000000000004F
:10615000000000000000000000000000000000003F
:10616000000000000000000000000000000000002F
:10617000000000000000000000000000000000001F
:10618000000000000000000000000000000000000F
:1061900000000000000000000000000000000000FF
:1061A00000000000000000000000000000000000EF
:1061B00000000000000000000000000000000000DF
:1061C00000000000000000000000000000000000CF
:1061D00000000000000000000000000000000000BF
:1061E00000000000000000000000000000000000AF
:1061F000000000000000000000000000000000009F
:10620000364937480A1A02D0072291438D4635494C
:1062100035480A1A06D00722914381F309880222E1
:1062200082F3148831483249324A00F045F8324846
:106230003249334A00F040F832483349334A00F0DB
:106240003BF833483349344A00F036F83348344990
:10625000344A00F031F834483449354A00F02CF81B
:1062600034483549354A00F027F835483549002289
:1062700000F02DF834483549002200F028F8344861
:106280003449091A082903DB002202600430016046
:10629000314A90471F482049884205D0026804309F
:1062A00003B4904703BCF7E700208646EC46002085
:1062B00000212A4A9047FEE7884207D0521A05D0AB
:1062C000037801300B700131013AF9D170478842EF
:1062D00002D002700130FAE770470000000004208D
:1062E00000E0032000000420000004209832030096
:1062F000E41C002050210020D8630200D863020073
:10630000FA07030098320300E41C0020E41C00207C
:10631000A4090300A4090300A4090300A4090300BD
:10632000A4090300A4090300A4090300A4090300AD
:106330009832030004370300502100205021002030
:10634000502100207C3600207C3600207C36002046
:106350007C3600207C560020A16302005DB702005D
:10636000FEE7FEE7FEE7FEE7FEE7FEE7FEE7FEE705
:10637000FEE7FEE7704700BF1048804710484FF027
:106380000701884385460F4880470F48016841F45C
:1063900070010160BFF34F8FBFF36F8FFFF730BF06
:1063A0000A480B490B4A884207D0521A05D0037895
:1063B00001300B700131013AF9D170477563020069
:1063C00000000420A197020088ED00E0900903007E
:0863D000D01C0020E41C002099
:1063D800F0B595B01C46164608460D4602F094FFE7
:1063E8001A9B0D93CDE9086400242346082205A9C9
:1063F80028460A948DF82C400C9402F0A3FF079BC2
:106408000293BDF81830ADF80C30BDF81A30ADF86D
:106418000E309DF814308DF8114003F00302012A64
:106428001DD1BDF81440059EC3F3C203C4F3831401
:106438008DF81030A20008230EA9284602F082FF2A
:10644800C6F3952608AB0093224602AB0EA9304648
:1064580000F08AFC284602F05BFF15B0F0BD022A66
:10646800F8D1BDF81640C3F3C203A4098DF8103063
:106478000827082C264628BF08263B4632460EA980
:10648800284602F05FFFA41B08AB02AA31460EA8FB
:10649800374400F0CDFC002CEBD1DBE7014B0122A7
:1064A8001A707047912100207047000070B50E4D9A
:1064B80006460FCD88B06C460FC495E80F0084E8F7
:1064C8000F0008A9002E4FF00603084A41F8203DA6
:1064D80008BF0022064803F0BBFB08B100F03EFEEF
:1064E800044B1E7008B070BDA4090300A564020027
:1064F800E41C00205021002007B5044B0093044AF7
:106508004023FFF765FF03B05DF804FB1D6502003B
:106518005121002038B50D4B0D4D002018700D4845
:1065280004782D5DD2B21C4665B1043004F0D6FA69
:1065380008B100F013FE084B1A7812B12378002B2B
:10654800FBD038BD0C3004F0A7F8F1E7912100200A
:10655800982A0020E41C00205021002008B5084893
:10656800084A0378D35C3BB1043004F061FA002098
:10657800BDE80840FFF79ABF0C3004F037F8F6E79B
:10658800E41C0020982A00200120FFF78FBF00009C
:1065980008B5FFF7F9FF0421034800F053FB034B4C
:1065A80001225A7108BD00BF80090300F81C0020B1
:1065B800037813F0040216D003F00303012B03D071
:1065C800022B09D0012070470A6800880232C0F304
:1065D800831002440A60F5E70B684288023303EB34
:1065E80092130B60EEE71046704700002DE9F04F5C
:1065F80089B00546861C08A8484C019200230F461E
:1066080000F8113D01F092F823683B60D4E90123BA
:106618001344226801339B1A04F21C4704F5836A69
:1066280004F21448B3421AD3019A0023002A6DD009
:10663800012262F3010343F0040365F3891321681F
:10664800A2689DF80F000A4003320E4444F8223035
:10665800266001F08FF8012009B0BDE8F08F012114
:10666800384602F0ABF8504602F0C1F8404602F056
:10667800BEF80DF120096068D4F808B049F8100D8B
:1066880000EA0B00033004EB80004946FFF790FF57
:10669800049BB0B90BEA030204EB8202D1680591AE
:1066A8009A1C013303EA0B0B04EB8B0C01F0030378
:1066B800012B0492DCF80CB020D0022B04D08346C6
:1066C8000BE00BEA0300DDE7BDF816309B09033346
:1066D8004FEA1B4B02EB93030493404602F08AF8FF
:1066E80008B1049B63605946384602F067F8D4E95C
:1066F80001231344226801339B1A93E7BDF8143031
:10670800C3F383134FEA1B4B1344E5E7022262F3FA
:10671800010343F0040365F39F5390E764220020CC
:106728000B4B0C48FF2210B59A600022C3F81824BE
:10673800C3E90022C3F8142483F8202402F09DFD45
:10674800044610B9044802F06EFF204610BD00BF91
:106758006422002044090300E409030030B50A4C10
:1067680071B10A4A0A49121BD20800239A4201D180
:10677800002030BD31F82350854202D00133F5E7BF
:10678800034654F83300F4E774080300440903008F
:10679800D01C0020094B013903EBC000032909D89C
:1067A800DFE801F00A020406042070470079704708
:1067B8004079704700207047022070477408030032
:1067C800164B93F8203437B504460BB918B9002492
:1067D800204603B030BD09F0DCFF02AA013042F8C0
:1067E800080D012301A90E4802F026FF05460028DE
:1067F800EDD12146009A019809F06FFFDDE90023E9
:106808001344074803F8015C009902F04FFF009910
:10681800034802F062FF019CDAE700BF642200200F
:10682800E4090300034BD3E90030C31A5842584126
:10683800704700BF642200202DE9F04387B0FFF7BE
:10684800F1FF0646002840F0FC807F4DC5F818048B
:10685800BFF34F8F6868AC6806AF47F8100D20404B
:10686800033005EB80003946FFF7A2FE029B18B102
:10687800D5F81824002A5FD004EA0302991C0133D2
:1068880005EB8202234005EB8303D268DB6804939F
:1068980002F00303022B0392029162D1BDF80E307D
:1068A8006A484FEA9318B8F1500FC14628BF4FF015
:1068B800500969F38F1309F10801ADF80E3002F0A1
:1068C800F4FC0746002800F0A78002F01DFD03A98C
:1068D80000230822384602F02AFD029924EA01061C
:1068E8000136B600B14535D95FFA89F97EB3F6B2FB
:1068F800A9EB0609214003315FFA89F4B146544EE9
:1069080005EB810108234A46384602F010FD36B1EE
:1069180009F1080322463146384602F008FD029B79
:1069280008F1030803EB98030293D5F81834002BF9
:106938004BD1D5F810445BE02A689A4204D86A60C3
:10694800304607B0BDE8F08304EA030088E7404911
:106958003446D7E72140033108234A4605EB810135
:10696800DAE7012B58D1BDF80C303848C3F383114E
:10697800062928BF062161F3891302318900ADF881
:106988000C3002F092FC0746002845D002F0BCFC0F
:106998000023082203A9384602F0C9FC0026BDF8E6
:1069A8000C20C2F38312B31C96424FEA8303BCD275
:1069B80002994A1C21400331029205EB810104220D
:1069C800384602F0B4FC0136E9E7384602F0A0FC8C
:1069D800FFF728FF80F00100C6B2B1E7E3685B79F2
:1069E80023B1236839461B6820469847E3681C682A
:1069F800002CF3D1384602F08BFC06A800F8114DA4
:106A080000F094FED5F818340BB9029B6B609DF822
:106A1800070000F0AFFEDBE7D5F8104454B90D4B82
:106A28000D480E49C01AC008000440F0020000F0EA
:106A38006FF8CDE7236820469B689847E3681C6891
:106A4800ECE700267CE700BF64220020440903002D
:106A580070220020740803009C080300F00903005A
:106A68002DE9F74F284C80460F46924601A901228E
:106A780018469B46D4F80890FFF7B8FD88B3019DE7
:106A88000026A91C5E4506EB010234D100211F48EF
:106A980001F053FE80F310006A1C02EA090204EBBD
:106AA8008202000405EA0903033340EA1840D06073
:106AB80014F8232068F3C50204F8232034F82320AF
:106AC80066F3891224F8232054F82320012167F360
:106AD8009F2244F8232061F301026FF3820204F835
:106AE800232094F820341BB1FFF7A6FE0028FBD121
:106AF80003B0BDE8F08F09EA020204EB82025AF8FB
:106B08002630D3600136BDE76422002080260020AD
:106B180000231A46FFF7A4BF13B502AC012344F8BB
:106B2800042D2246FFF79CFF02B010BD07B5CDE942
:106B3800002302236A46FFF793FF03B05DF804FBC6
:106B48001FB5CDE90123069B039301AA0323FFF791
:106B580087FF05B05DF804FB1FB5CDE90023069B50
:106B68000293079B03936A460423FFF779FF05B056
:106B78005DF804FB2DE9F3478046304CD01C8A466B
:106B8800174601A900228008A568FFF72FFD0028F5
:106B980040D0DDF80490A66809F1020001900136A2
:106BA8002840361AB6000330B74204EB80003BD8C1
:106BB8003A46514609F091FD0021214801F0BDFDFA
:106BC80080F3100009F101032B4004EB83034FEA23
:106BD800184242EA0040D86005EA0903033304EB8F
:106BE800830214F8231068F3C50104F8231034F85D
:106BF80023106FF38F1124F82310518867F38F1136
:106C0800518014F82320022161F301026FF38202FC
:106C180004F8232094F820341BB1FFF70DFE002858
:106C2800FBD102B0BDE8F0873246514609F055FD68
:106C3800BA1B0AEB060104F10C00BBE76422002032
:106C48008026002030B50F49D1F8102400231446BF
:106C58003CB9C468237152B9C1F8100422601846BF
:106C680030BDE46825799D4206D02468F0E7D268F3
:106C7800116821601060F2E701330A2BE7D14FF069
:106C8800FF33ECE764220020094A38B50123D2F823
:106C9800104482F820341D4604B938BDE3685D719C
:106CA800236820465B689847E3681C68F4E700BFE0
:106CB80064220020037A052B10B50C460FD0437AC6
:106CC80023B1084A0849204601F0F8FD0749204643
:106CD80001F0F4FD2046BDE8104001F0E4BD002AB3
:106CE800F8D0F3E7370A030097250300590A030091
:106CF800C38873B504460D4633B1144A009214494B
:106D0800144A284601F0DAFD217A05291CD0637A55
:106D18004BB1A088FFF73EFD0F4B104953F82020D8
:106D2800284601F0CBFD227A0D4BA08853F822604B
:106D38000021FFF713FD0B4903463246284602B0EF
:106D4800BDE8704001F0BABD02B070BD370A03005B
:106D5800440A03003C0A0300080A030097250300BD
:106D6800680A03005C0A03002DE9F04385B01F465A
:106D78000C9D002306460C46904695F80C902B7304
:106D880029463846FFF7B4FFB8F1060F09D8DFE8FF
:106D980008F00412181F283340003146284601F035
:106DA8008DFD002229463846FFF784FF85F80C90B0
:106DB80005B0BDE8F08322683146284601F07EFD23
:106DC800EFE7D4E900233146284601F077FDE8E7EC
:106DD800A36800933146D4E90023284601F06EFDEC
:106DE800DFE7E3680193A36800933146D4E9002301
:106DF800284601F063FDD4E723690293E368019311
:106E0800A36800933146D4E90023284601F056FDD3
:106E1800C7E76369039323690293E3680193A3684F
:106E280000933146D4E90023284601F047FDB8E72E
:106E380008292DE9F84F80460E4617461C4636D8D5
:106E4800002593F80C901D7319461046FFF750FF64
:106E5800DFF87CA0DFF87CB0AE422AD918F805200C
:106E68005946204601F02AFD0135082DF4D116496E
:106E7800DFF864B0204601F021FD0025AE421DD99F
:106E880018F805A0504609F0EDFB002814BF52463B
:106E98002E225946204601F011FD0135082DEDD16D
:106EA800012221463846FFF705FF84F80C90BDE81B
:106EB800F88F5146204601F001FDD5E703492046E9
:106EC80001F0FCFCE9E700BF320A030028160300C2
:106ED800261603002C0A0300340A03002DE9F04F9C
:106EE8003B4F89B000263B4B1B78F5B2AB4202D82A
:106EF80009B0BDE8F08F384B196811F83500012446
:106F0800A0F12002C0F1200304FA02F924FA03F3E5
:106F180049EA0309D7E9002304FA00F8CDE9042374
:106F280002EA080203EA0903134301EBC50B4CD03C
:106F3800DDE9042322EA080223EA0903C7E900235A
:106F4800079103F079F80799844611F83500A0F104
:106F58002002C0F1200324FA03F304FA02F21A43D0
:106F680004FA00F300931D4B0192DDE90045D3E9D3
:106F7800002314401D4022462B465FFA8CF400255E
:106F8800CDE90445049CA0F12005AC400394049C81
:106F9800C0F1200124FA01F1039C0C4304990394E5
:106FA80081400291DDE90245AB4208BFA2420CD103
:106FB8009BF801104B1E59425941A1EB0C02DBF81A
:106FC80004305142514103B1984701368BE700BF65
:106FD800502700202027002058270020482700207D
:106FE8002DE9F84F0646244800F090FB002841D1CF
:106FF8000123A6F12001C6F1200203FA01FB23FABE
:1070080002F203FA06FA1D4BD3E900014BEA020B20
:1070180000EA0A0801EA0B0958EA09021F4623D1C7
:10702800304603F009F8164BB8B1D3E9000140EA3D
:107038000A0441EA0B05C3E90045D7E900234BEAF6
:107048000305104B0C4819684AEA0204C7E90045D1
:107058000022BDE8F84F00F015BBD3E9000120EA93
:107068000A0421EA0B05E6E720EA0A0421EA0B05EF
:10707800C3E90045BDE8F88F2827002050270020E5
:107088004827002024270020042A2DE9F34105463B
:107098000C4616463AD902F0F5FED8B11C4B1D49EC
:1070A8001D601D4BDFF884801C701C4B00221E6085
:1070B8000023C1E900231A49C1E90023013CE4B2D5
:1070C80000260327FF2C0CD1164A1748002100F090
:1070D800C7FA03E002F09EFE0028DFD002B0BDE848
:1070E800F08123B205EBC30201A992788DF805203F
:1070F80015F833008DF8066042468DF8047002F0EA
:10710800CBFE013CE4B20028DCD0E7E70720E5E746
:107118005827002048270020202700202427002067
:1071280050270020E56E0200C80A0300E96F02003C
:1071380070B5084D084E00242B789C4201D30020DE
:1071480070BD3368012113F8340002F02BFF0134BD
:10715800F2E700BF20270020582700201FB5002194
:10716800039001AA44F20100CDE9011100F004F8EE
:1071780005B05DF804FB000010B572B6FFF784FD9A
:10718800FFF75AFB0028FBD1104B114C1149E41AA8
:10719800E408240444F00100FFF7BAFC0E4B1B6816
:1071A800DB0700D500BE0D4944F00200FFF7B0FC34
:1071B800BFF34F8F0A490B4BCA6802F4E0621343CE
:1071C800CB60BFF34F8F00BFFDE700BF740803001B
:1071D8009C080300CC0A0300F0ED00E0D80A030085
:1071E80000ED00E00400FA05094A5378917801336C
:1071F800DBB2994208BF0023117899421FBF037080
:107208005078182303FB002014BF04300020704777
:107218005C27002073B5054602A8002400F8014D3C
:107228000E4600F083FA0DF10600FFF7DDFF90B17E
:1072380006700A4B9DF8062045605A709DF80700B5
:1072480000F098FA24B9064B4FF48012C3F80021D5
:10725800204602B070BD0424F0E700BF5C27002080
:1072680000E100E0024B4FF43C6043F00103184793
:10727800F00A030038B50C4B0C4C4FF40032C3F83D
:10728800802001254FF48033C4F84833C4F808330C
:107298006560FFF7E7FF064BA56000241C60FFF759
:1072A800E1FF044B1C7038BD00E100E00010014014
:1072B8007828002069280020F8B51F4B1F491B6853
:1072C8000025C1F84051C1F84451C1F84851C1F8EE
:1072D8004C51C1F80051C1F804514BB3D1F80445E1
:1072E80017490968641A24F07F442F461A68A24295
:1072F80009D8A41A15441A7CDE691AB11F74D3E997
:1073080005209047AEB90F4B0F4A197813788B4276
:1073180005D10133DBB2022B08BF002313701278AA
:107328000A4B43F822500A4B4FF48012C3F800214D
:10733800F8BD3346DAE700BF7C2800200010014082
:107348007828002074280020752800206C28002048
:1073580000E100E02DE9F74F9E4A9F49137809782C
:107368009E4D99423CD00133DBB2022B08BF00236B
:1073780013709B4912789B4B0F6853F822003B18F7
:1073880023F07F4300220B602B6816461446944670
:1073980013B942B12B6006E0196881420ED902B1D7
:1073A8002B60091A19604FF001082B68DFF83CA21E
:1073B80000930027BEB9DFF83CB260E0401A0C44E5
:1073C800D968C3F800C0D3F81CE031B13A1922F0EB
:1073D8007F42C3E90121DE611E4601227346D7E7D9
:1073E8000026B046E1E73446F6697D4A63681268CC
:1073F800DFF804C2A068991A21F07F41614500F2C4
:10740800A58001442160012222742A680023C4E96E
:107418000133E361002A40F0A2802C60CAE75A1CBD
:107428009BF80210D2B291428BF8002004BF0022D0
:107438008BF80020182202FB03B32A6819799C688C
:10744800022974D003297ED0012918D1217CB1B931
:10745800DA6862601A69A2605A699B69A361624B23
:10746800E2601B78002BC0D06160BEE79C4200F050
:1074780093809946DB69002BF8D1002323749BF88D
:1074880000309BF801209A42C9D12B682FB9009A85
:10749800934202D1B8F1000F43D0002B79D0D3F832
:1074A80000A0524D4E4BD5F804751C68DFF84C818E
:1074B8003E1B98F8003026F07F4603369BB94FF400
:1074C8008033C5F84433C5F80433494B4FF40032D0
:1074D8004FF00109C3F880211A60C5F80090FFF742
:1074E800C1FE88F80090B2452CBF5444A41924F07A
:1074F8007F44C5F84045D5F80435DB1B23F07F43AE
:10750800E41B033324F07F44A3420AD9D5F8043599
:10751800C5F84035FFF7A6FE354B4FF40032C3F8E7
:107528000021314B00221A7003B0BDE8F08F1346DA
:107538009146A0E71174D2690123002AFAD1002BE1
:107548009DD02A609BE700231946F6E7D31A23F05B
:107558007F43834234BFC31A0023236053E7216863
:107568001368994213D8591A1160E26155E7091A4C
:10757800D8691A4638B1034618688842F7D3401AC2
:107588001860184613462160E061DC6112E7134673
:10759800F2E7FFF76FFEC4E74C450DD1D3692B60C6
:1075A80053B90F4801920121CAF8081003600E4B25
:1075B8001970FFF757FE019AE1692368C9F81C1092
:1075C80011B1086803440B602B689A4218BF012761
:1075D80053E700BF74280020752800207C2800206D
:1075E800782800206C28002068280020001001401E
:1075F80000E100E05C270020FEFF7F0069280020F2
:1076080008B5FFF737FE104B00200B2218809A7040
:107618000E4B18600E4B18700E4B18700E4B4FF433
:107628008012C021C3F8802183F814131A6002F174
:107638008042A2F56F22C2F8080583F81113074BA0
:10764800D2F804251A6008BD5C2700207C28002099
:10765800742800207528002000E100E07828002028
:10766800074B9B784BB132B128B10368187C20B91D
:1076780059745A617047072070470820704700BF47
:107688005C2700202DE9F7431D4FBB7805460E46C1
:1076980090469BB390B304292ED9436973B3437CB6
:1076A80002A80024012B00F8014D0CBF8946A14611
:1076B80000F03CF80DF10600FFF796FDD0B101236C
:1076C8000370104B4560D3F80435C0E90498C0E94D
:1076D80002369DF806307B709DF8070000F04AF8E6
:1076E80024B9094B4FF48012C3F80021204603B097
:1076F800BDE8F0830424EFE70724F7E70824F5E75B
:107708005C2700200010014000E100E0064A927862
:107718003AB130B1426922B1002202740221FFF766
:1077280079BD0820704700BF5C27002070B5EFF3D3
:10773800108672B60C4A946801239CB993600B4B6F
:107748000B4DD3F8801029401160C3F88050D3F84E
:10775800841051604FF0FF32C3F88420047006B9DA
:1077680062B670BD0370FAE78028002000E100E0EF
:10777800FC06FFBD084B9A6810B55AB150B9EFF333
:10778800108172B6054A1C6814605C685460986081
:1077980001B962B610BD00BF8028002000E100E0FA
:1077A80070B5064E0546002456F824300BB128461D
:1077B80098470134042CF7D170BD00BF98280020E9
:1077C800033080B240F2FD33984230B51FD8124BD7
:1077D8001A783AB91C895D892C440444A4B2B4F5DA
:1077E800806F0AD31A7DA2B99A8BDC8B224402449B
:1077F80092B2B2F5806F0CD201220A80144614228C
:1078080002FB04335A8910445881002030BD0920F6
:10781800FCE70720FAE700BFCC2800200B4A0C4BF6
:107828005188142000FB0131CB6833B90420496822
:1078380010700122074801F0C5BA052306491370E4
:1078480002238B80012200230968F3E7B028002077
:10785800CC280020D01C00209429002007B5002344
:1078680005490093054A09680548082301F014FAF8
:1078780003B05DF804FB00BF94290020040B03004B
:10788800D01C002007B50023009301460823034AB3
:10789800034801F001FA03B05DF804FBFC0A030099
:1078A800D01C002013B500230C4600930146042386
:1078B800074A084801F0F0F938B9074B142202FBCF
:1078C80004340123237402B010BD0E20FBE700BF6F
:1078D800F80A0300D01C0020CC28002037B50A483D
:1078E8000A4B42689C88196853880325033305703E
:1078F8009BB2002000909B0001EB8401044801F03A
:10790800CBF903B030BD00BFB02800209429002077
:10791800D01C002010B50146044800F042FE1C228D
:107928000446002108F002FF204610BD80290020EF
:107938004388033300EB8303994209D382884FF6C7
:10794800FF739A4206D00088B0FA80F04009704769
:1079580002207047012070472DE9F8430223DFF821
:1079680060800B800D46174600F5805600F108042C
:107978004FF00109B4420FD2236801330CD03146CD
:107988002046FFF7D5FF48B10FB187F800900228CD
:107998000BD14FF480632B80BDE8F883A368D8F837
:1079A8000020934201D9C8F800302B88628803333D
:1079B80013442B806388033304EB8304DAE700BFA6
:1079C800C4280020144A142303FB002070B50B6858
:1079D80044680D4604F580569BB15C88033403EB7C
:1079E8008404B4420BD22368013308D031462046C0
:1079F800FFF79EFF012809D005D30228F1D1002006
:107A080003E00834EDE72C60012070BD6388033380
:107A180004EB8304E5E700BFCC280020436873B576
:107A280005460C466BB3254AD1688B4229D31269A7
:107A3800934226D813F0030223D1214900890989EA
:107A480088421ED12868996888421AD11D49486819
:107A5800834203D900F5805083420ED38A6993424A
:107A68000DD902F58052934209D2012323800020C8
:107A7800B0FA80F0400902B070BD1346F6E70A205C
:107A8800F6E7002323801E462388012B01D9002016
:107A9800F1E7019601A92088FFF794FF18B9238818
:107AA80001332380F0E7019B2A6899689142F1D15C
:107AB8006B60034B1B892B81DDE700BFD01C0020C6
:107AC800B0280020CC2800202DE9F8431C461E4B86
:107AD8001B7806460F461546002B30D0002A30D0BA
:107AE8007CB3DFF86C804FF01409A388012B01D90F
:107AF8000A201AE009FB03F318F80330BBB1A38886
:107B08000133A380F1E723681EB199883288914236
:107B18000DD11FB119883A88914208D19A68C5E9F0
:107B280000230A4B1B892B810020BDE8F8832146DE
:107B3800A088FFF747FF0028E5D12060DFE7022093
:107B4800F3E70520F1E700BFA8280020B0280020AF
:107B5800CC28002008B5074B191D5888FFF732FFBD
:107B680018B1BDE80840FFF7B9BEBDE80840FFF707
:107B780055BE00BFB02800202DE9F04FA04FDFF818
:107B8800A49289B00646B8463B6823B949469D4841
:107B980000F041FD3860D8F8005029784B1E052BBD
:107BA80000F21281DFE813F0060076007600060185
:107BB80006015D0126B1944B00225A60012424E09D
:107BC8002B79032B1DD8DFE803F01502424D8F49AE
:107BD8000B78022B084631D00B7D022B4FF00103A6
:107BE8002ED114225343C2180020C8545068FFF7FE
:107BF80049FE03E001232B71FFF730FE002800F057
:107C0800D380814B00225A600E241422002103A83D
:107C180008F08CFD41F61D539C4208BF0024D8F89B
:107C2800003004941A78023A042A00F2D381DFE87B
:107C380012F0B401C001E301EB01F2010023D0E727
:107C4800714A13700023536041F61D54DDE77049F3
:107C58007048002302222B718A800122096801F0F2
:107C6800B1F8CBE76A4C00262E712068674DFFF704
:107C780009FE694BD4F800C05A8814235343EA1804
:107C8800EE5451682160A188C2F804C01181022213
:107C9800A280B3E7B5F814A0AA7DDFF870B1AEB141
:107CA800022AEB8806D9142101FB0AB1DA1C0889DB
:107CB80002440A81142202FB0ABAC3F57F43BAF8C8
:107CC8000A20FD331344AAF80A3077E7142303FB8C
:107CD8000AB318895C6804EB8004062A05D8DFE833
:107CE80002F0264C34421C5866000F24AA7DEB880B
:107CF800022A06D9142101FB0AB1DA1C08890244B8
:107D08000A81142202FB0ABAC3F57F43BAF80A2093
:107D1800FD331344AAF80A3077E740484049002366
:107D28004360AB690360FFF779FE00285AD002234D
:107D3800AB75002300930423EA182146354800F068
:107D4800ABFF002830D00E24D0E72B69002B0CBFE6
:107D580001230323AB750023009305F10C020423D0
:107D680004F10801EAE70123AB750022EB880092D1
:107D78009B002A6904F10C01E0E7032914BF0623DC
:107D88000523AB7500230093042305F10802E118CD
:107D9800D4E70623AB75224B1988204B5868FFF7A8
:107DA80081FD04460028A1D109B0BDE8F08F41F655
:107DB8001D549BE7002E7FF401AF2B79012B33D0A4
:107DC80004D3022B3FF440AF0F241EE702232B718C
:107DD8000DF10A01EB68039303A8CDE90466FFF7E8
:107DE8001DFE08B90A2410E70498BDF80A10838814
:107DF800EB8003882B81FFF755FD044627E000BF81
:107E0800C828002080290020A8280020CC2800208D
:107E180094290020D01C0020B02800208C280020A5
:107E2800A0290020C0280020DFF808A203AA534692
:107E38003146A81DFFF748FE044660B9BAF8041099
:107E48000498FFF72FFD04460A2C3FF4FDAE002CE2
:107E58007FF4DBAEA8E708223146504608F066FCFE
:107E6800F2E7002E7FF4AAAE6D4B1A7BB2B11E73F7
:107E78001A78013A062AA7D801A151F822F000BFC2
:107E88002F7F0200557F0200737F0200797F020076
:107E9800D17D02007F7F0200957F02001A78072AB1
:107EA800E6D801A151F822F0D17E0200797E0200C5
:107EB800797E0200F77E02000B7F02002B7F020012
:107EC8002B7F0200F37E02001A89564901321A817B
:107ED80000225A801A730A78B2FA82F252099A7208
:107EE8000A7DB2FA82F25209DA72012207E04E499B
:107EF80058688A884088033202448A8002221A70AD
:107F0800B6E7484C5A884849142505FB02420868D8
:107F1800546850608888108102228A800C6006228A
:107F2800EDE70722EBE79A7A32B9DA7A8AB90022C2
:107F38001A705A805A6087E63A4900229A72CA68CB
:107F4800002AF2D1097C0029EFD05A80FFF702FEFF
:107F580053E70022DA72334A116A0029E7D192F80E
:107F68002420002AE3D00122EFE7FFF7B7FC44E71B
:107F7800FFF754FC41E706221A702A4A5B8814214D
:107F880001FB03235868FFF77DFC36E707221A70C8
:107F980000225A60FFF762FC2FE701228DF80C20BF
:107FA8001A89ADF818209A88DB68ADF81A2005936D
:107FB80010E002228DF80C201A89ADF818209A8852
:107FC800ADF81A20DA689B7D05929A1F53425341F7
:107FD8008DF81C3003A8FFF7E3FB00264946134839
:107FE800C8F8006000F042FB0121114800F0F1FBE5
:107FF80000287FF4C9ADD7E603228DF80C20DA8873
:10800800ADF818201A89CFE70422DB888DF80C20F8
:10801800ADF81830DEE705238DF80C30DAE700BF3D
:10802800B0280020CC280020942900208029002096
:1080380090290020A42900204068FFF79DBD00007A
:1080480008B50121044800F0AEFB18B9BDE80840A6
:10805800FFF792BD08BD00BF902900202DE9F3412C
:108068009846354B1B7806460D46002B5BD00029F9
:108078005BD009884FF6FF73994258D06B88002B64
:1080880055D06B689B0754D14AB92F890DF102016D
:108098003846FFF795FB30B102B0BDE8F081138890
:1080A8005788ADF8023001A8FFF734FC044658B9E8
:1080B800BDF80230214A142101FB032358890338F3
:1080C800C01B58810820E7E700238375BDF80230FC
:1080D80083826B68036180F800800121184800F0F2
:1080E8006DFB2B882381B8F1030F6B88A38004BF35
:1080F8000423A3754FF0000508BF3368E06008BF8C
:10810800A361E780658101A90E4800F074FA36B1D1
:10811800E36833600C4B75601B89B5723381FFF7D8
:108128008FFF0020B8E70220B6E70520B4E7042057
:10813800B2E70320B0E700BFA8280020CC28002021
:10814800C428002080290020B028002008B5084B4A
:108158001A68042A09D01968064A42F82100012140
:10816800184600F02BFB002008BD0C20FCE700BFE0
:108178009C290020982800202DE9F04F89B014226E
:10818800002103A808F0D2FA7B4A137803F0FF0114
:10819800009190463BB103A8FFF702FB002630464A
:1081A80009B0BDE8F08F101D00F01EFB0546002841
:1081B800F4D14FF010234FF080525B691169526976
:1081C800DFF8DCA1581C08BF02FB01F3CAF8103025
:1081D8000022A3F540536949CAF80C30504600F014
:1081E80027FD06460028DAD11C238C2264496548FD
:1081F80000F0A2F93746B3464FF003093446CDF8EC
:1082080004A0019BD9680BEB010002465BF8011042
:10821800002835D05C4B994232D141685B4B99427A
:1082280015D0013399422BD1009BDFF86CA1002BAC
:1082380059D100225649CAF80000FFF78DFBBAF859
:108248000420022A14BF0822042217433AE05149A5
:108258004FF0140C0CFB04FC01EB0C024FF0000E69
:1082680001F80CE050600CF110020CF1080C0A4403
:108278006144FFF771FB47F002070134A4B221E023
:1082880000F5805C1168013167D104329445F9D159
:10829800414A116829B90221012310609180009395
:1082A8000EE0142262433B4B4FF0020E991803F87C
:1082B80002E03A4A486054800134A1F808E0A4B2C8
:1082C80047F001070BF5805BBBF5405F99D1B9F129
:1082D800010F88BF3D46EDB2022D02D0062D12D007
:1082E800DDB90B265BE72B4B1422624399184FF03C
:1082F800020C03F802C00134DAF800204A60A1F841
:1083080008C0A4B295E7012388F8003003A8002329
:10831800C8F80430FFF744FA41E702A8FFF7FAFA71
:10832800C8B10123013D03700A2D09D8DFE805F023
:1083380006080608070807080F110F000023037135
:1083480002A9104800F057F9FFF77AFE27E7032340
:10835800F5E70223F3E7082621E70E4914226243D2
:1083680001EB020C09F1FF39CCF8040003201FFAD5
:1083780089F9885481E700BFA8280020F80C030079
:10838800F428002080290020DEC0ADDEFE011EF1A9
:1083980098290020CC28002094290020B02800200B
:1083A800D01C002073B50D460446C8B1C1B10DF10B
:1083B8000601FFF733FBA8B10B4BBDF80600666852
:1083C800142202FB003001210C3000F0F7F9636839
:1083D8002E600C336B600123A372002002B070BDC5
:1083E8000520FBE70A20F9E7CC28002013B504464E
:1083F800A8B10DF10601FFF711FB90B10B4ABDF8CA
:108408000630142101FB0323DA6862B1A27A52B163
:10841800DA680020013ADA60A07202B010BD0520C7
:10842800FBE70A20F9E70620F7E700BFCC28002081
:1084380002230022FFF712BE18B103230022FFF720
:108448000DBE052070470000104B1B7813B504467D
:10845800ABB14FF6FF73984213D001A8FFF75AFA51
:1084680088B10523037001230371C48001A908485A
:1084780000F0C1F8FFF7E4FD002002B010BD0220B3
:10848800FBE70420F9E70820F7E700BFA828002049
:10849800802900200E4B1B7807B5A3B101A8FFF770
:1084A80039FA90B10623037001A90A4800F0A3F82D
:1084B800094B1A780AB101221A73FFF7C1FD00208F
:1084C80003B05DF804FB0220FAE70820F8E700BFD4
:1084D800A828002080290020B028002007B5ADF882
:1084E800060002A820F8041D01460DF10600FFF75A
:1084F800EBFA03B05DF804FB13B502AC134624F89D
:10850800020D0A4600202146FFF7DEFA02B010BD30
:1085180013B502AC134624F8020D0A462046002182
:10852800FFF7D2FA02B010BD20B119B103680B6091
:10853800002070470520704710B561B1B2FBF3F415
:1085480003FB1424A4B244B9C0E9001484608281F6
:10855800C381204610BD0E20FCE70920FAE782B04F
:1085680050E8022FC188B2EB324F4FF0000317BF1B
:1085780092B241EA014142EA014104E04268B2EBA9
:10858800324F08BF012340E80212002AE8D18DF8D3
:1085980007309DF80730002B0CBF1120002002B0D7
:1085A800704737B550E8013F9DB2C4892544848996
:1085B800A54228BF2D1B0489A54202BFBFF32F8FF8
:1085C800002207E0C5EA030540E80154002CE9D180
:1085D8004FF001028DF803200193019B9DF80320C1
:1085E8000B6002F0FF0322B10B880068184403B047
:1085F80030BD1846FBE70A884B889A4209D150E8F3
:10860800012FC2EA024240E80123002BF7D10120E2
:1086180070470020704737B550E8023F1FFAA3F5AE
:10862800C488A54202BFBFF32F8F00220DE0C48982
:1086380025448489A54228BF2D1BC3EA054540E887
:108648000254002CE8D14FF001028DF80320019369
:10865800019B9DF803200B6002F0FF0322B14B88B9
:108668000068184403B030BD1846FBE70A884B88F9
:108678009A4209D150E8022FC2EA224240E8022376
:10868800002BF7D1012070470020704701F01F022E
:108698004B090121914000EB830000F063B84B09BE
:1086A80010B501F01F040121A14000EB830000F088
:1086B8004EF8E04000F0010010BD01F01F03012258
:1086C8009A404B0900EB8300D14300F061B84B0995
:1086D80001F01F0150F82300C84000F00100704766
:1086E8002DE9F0474E1E760980460F4601360025D3
:1086F80058F8254008EB850AE44394FAA4F4B4FA40
:1087080084F44FEA4519202C06D10135AE42EFD842
:108718003C462046BDE8F0874C44A742F5D921469F
:108728004046FFF7BCFF0028F3D0DAF80040E443E6
:1087380094FAA4F4B4FA84F4E5E750E8002F0B4661
:1087480040E8003C9CF0000FF7D11046704750E815
:10875800002F42EA010340E8003C9CF0000FF6D1EC
:108768001046704750E8003F43EA010240E8002CF9
:108778009CF0000FF6D11046704750E8002F02EA2F
:10878800010340E8003C9CF0000FF6D1104670470A
:1087980050E8003F03EA010240E8002C9CF0000F7B
:1087A800F6D11046704750E8002F02EB010340E86D
:1087B800003C9CF0000FF6D11046704750E8003F8F
:1087C80003EB010240E8002C9CF0000FF6D11046A4
:1087D800704750E8003FA3EB010240E8002C9CF0F2
:1087E800000FF6D1104670470121FFF7B0BF0121F5
:1087F800FFF7B8BF0021FFF7C0BF0021FFF7C8BFD0
:1088080010B590B1D0E9012301689B1ADBB20A6068
:10881800013BDBB2FF2B026802D10020107110BDB2
:1088280011684C1C14600B70F2E70E20F7E737B59F
:10883800054602A8002400F8014DFEF777FF2A68D4
:108848006B68116899420ED9481E106011F8014CE6
:10885800EB68298A01FB0434AB6811791B1ADBB277
:10886800994238BF13719DF80700FEF783FF204631
:1088780003B030BD37B5054602A8002300F8013D16
:108888000C46FEF753FF2A681368591C1160E96803
:10889800641A298AB4FBF1F41C709DF80700FEF7EE
:1088A80069FF03B030BD826810B504462AB1436938
:1088B8000168006998470023A36010BD0EB403B592
:1088C800039929B102AA04AB42F8043D00F06AF802
:1088D80002B05DF804EB03B07047826830B40468F6
:1088E800551C8560A154D0E901329A4202D330BCAC
:1088F800FFF7D9BF30BC70472DE9F84F9946DDE93D
:108908000A431746824688460A460126BA420FD2CB
:108918004E4538BF4E4613F0010B01D164B900240F
:108928000125B9F1010F1AD909F1FF397D43F8E79B
:10893800B2FBF7F20136E9E79B070ED5B9F1000F54
:108948000CBF30252025A642EAD2013C29465046D4
:10895800FFF7C3FF002CF6D1E1E72025F3E7B8FBCA
:10896800F5F39F42E2D9DFF83890B8FBF5F35046AB
:1089780019F8031005FB1388FFF7AFFFB5FBF7F5F0
:10898800002DF2D1BBF1000F02D00CB1A64201D3E9
:10899800BDE8F88F20215046013CFFF79EFFF4E721
:1089A8000C0B03002DE9F74F054690460E460029AB
:1089B80000F03A8116F8011B002958D0252940F00B
:1089C800D180002702E047F001071646324612F828
:1089D800013B2D2BF7D0302B04D02B2B05D147F0A2
:1089E8000407F2E747F00207EFE700242A2B06F115
:1089F80001021BD1D8F80030191D1B68C8F80010F7
:108A08001C44164633782E2B1CD101364FF0000A31
:108A1800314611F8012BA2F13000092814D80A2395
:108A280003FB0A23A3F1300A0E46F1E712F8013CD2
:108A3800A3F130010929E5D80A2101FB0434303CAF
:108A48001646D3E74FF0000A324612F8011B01F030
:108A5800FB0068281646F8D0692916D054D858293A
:108A680070D00ED825297DD03378002BA2D12B7B4E
:108A7800002B00F0D980284603B0BDE8F04FFFF77F
:108A880012BF632968D06429EED1D8F80020D2F843
:108A98000090111D89EAE972C8F80010A2EBE9728A
:108AA8004FF0010B092A61DCD34538BFD3462CB1FE
:108AB800B9F1000F01DB790700D5013CBA0702D5EF
:108AC800BAF1000F04D0FB0702D4002C54D10024C3
:108AD800B9F1000F58DAC9F100092D212846FFF72E
:108AE800FCFE07F00302022A05D1BAF1000F02D1F9
:108AF800002C4DD10024CDE9004753460A224946AF
:108B08002846FFF7F9FEAFE7732954D016D8702925
:108B1800AAD1D8F800301A1DC8F8002030212846FC
:108B28001C68FFF7DAFE78212846FFF7D6FE0022F8
:108B38000823CDE9003221461022E1E775292FD01C
:108B4800782991D1D8F800100A1DC8F80020CDE97D
:108B58000047534610222CE0D8F800301A1D197827
:108B6800C8F800202846FFF7B8FE7DE70A230BF176
:108B7800010B92FBF3F295E7A345A9D220212846E1
:108B8800013CFFF7AAFEA0E77807AAD52B21A5E7A5
:108B9800A345B0D230212846013CFFF79EFEA7E747
:108BA800D8F80010CDE900470A1DC8F80020534640
:108BB8000A220968A4E7D8F800301A1DC8F800206E
:108BC800F907D3F8009012D54F46A7EB090B17F811
:108BD800011B41B9A345BFF447AF20212846013CFA
:108BE800FFF77BFEF6E72846FFF777FEEDE7B9F1DA
:108BF800000F17D0484607F0CCFD0746BC4200D905
:108C080054B909F1FF3919F8011F00293FF42CAFB5
:108C18002846FFF762FEF6E720212846013CFFF7C9
:108C28005CFEEBE74F46E9E703B0BDE8F08F0000D4
:108C380007B50B4688B9124B1248134AC01A0E23BF
:108C4800C0080093114B0004114940F00100FDF7E2
:108C580077FF0E2003B05DF804FB4BB9084B0948B9
:108C68000C4AC01AC0080E2300930004074BEBE718
:108C780003601B68114603B05DF804EB184700BF9A
:108C880074080300D4080300C90B03001C0B03007D
:108C9800CE0B0300450C03002DE9F34188B93D4B89
:108CA8003D483E4AC01AC0080E243D4B00940004BB
:108CB8003C4940F00100FDF743FF204602B0BDE803
:108CC800F0814AB9334B3448374AC01AC0080E24D9
:108CD80000040094324BEBE7D0F800C0BCF1000F61
:108CE80009D12C4B2C48314AC01AC008082400046A
:108CF80000942B4BDCE74BB9264B27482C4AC01A6B
:108D0800C008092400040094254BD1E74768D7F828
:108D18000480B3FBF8F708FB17374FB11D4B1E480B
:108D2800244AC01AC0080924000400941C4BBFE759
:108D38008F0709D0174B18481F4AC01AC0081024BB
:108D480000040094164BB3E712F0030F09D0114B3F
:108D580011481A4AC01AC008102400040094104B85
:108D6800A6E7C768B9420BD34C1E05691C44AC4240
:108D780006D8DCF80C40A44602B0BDE8F0416047D4
:108D8800044B05480E4AC01AC00810240004009479
:108D9800034B8DE774080300D4080300C90B0300D4
:108DA8002E0B0300CE0B03004B0C03003F0C0300FB
:108DB800FE0B0300510C03007B0C0300930C030013
:108DC800B60C0300F7B580B92A4B2B482B4AC01ABA
:108DD800C0080E242A4B009400042A4940F00100E0
:108DE800FDF7AEFE204603B0F0BDD0F800C0BCF1E0
:108DF800000F09D11F4B2048234AC01AC008082475
:108E0800000400941E4BE8E74AB91A4B1A481F4A57
:108E1800C01AC008092400040094194BDDE747680C
:108E2800D7F800E00EF1FF370F4209D0114B124876
:108E3800174AC01AC008102400040094104BCCE74D
:108E4800C768B9420CD34C1E05690EFB0244AC42FC
:108E580006D8DCF81040A44603B0BDE8F0406047EF
:108E6800044B05480B4AC01AC0081024000400949B
:108E7800034BB2E774080300D4080300C90B0300CE
:108E8800410B0300CE0B03003F0C0300FE0B030055
:108E9800540B03007A0B03002DE9F04108B1036875
:108EA800C3B90E4E0E4B14229B1B0024B3FBF2F3E6
:108EB800374602FB03F5A54201D1002008E03B59E3
:108EC80030190BB91434F6E7DB6998470028F9D054
:108ED800BDE8F081DB69BDE8F0411847D01C0020EF
:108EE800E41C002029DF704728DF704770B503684D
:108EF8009D6886B004460E466DB11422002168466E
:108F080007F014FCA3680593237901962BB1012B74
:108F18000DD06846A84706B070BD01238DF8003013
:108F280023690293E368039363690493F1E70223D7
:108F38008DF80030E3681B030293F5E70846704795
:108F480000207047024B187A003018BF0120704784
:108F5800482A0020034B187A0122B0FA80F05A748C
:108F680040097047482A002008B510461A4607F0FD
:108F7800B4FB002008BD000008B5142200210448F5
:108F880007F0D4FB0348FFF7EAFA002008BD00BF4A
:108F9800482A0020382A002010B5094C094B4360A4
:108FA8002046FFF721FC40B907F036F91C2320744E
:108FB8008C2205490548FFF7BFFA002010BD00BF05
:108FC800482A0020EC0C0300AC290020382A002095
:108FD80070B5244D244E2B7A2C463BB9234924489E
:108FE800FFF719FB306008B9686070BD022323726F
:108FF80033681A7972B1012A24D018460321FFF781
:1090080075FF00232372636018491948BDE8704052
:10901800FFF72CBBD3E90520121AB2F5805F28BFF1
:109028004FF48052D3E903159208012A014438BF4E
:1090380001222844FFF756FF50B11128DDD1012342
:109048002372D2E7D3E903021044FFF74DFFF3E799
:10905800237C002BC9D10146BDE87040022000F0F6
:1090680009B800BF482A0020602A00205C2A002096
:10907800382A002038B5831E012B45D8234C237A83
:10908800002B41D0022B09D1032830D0204B1B687C
:109098000022E2601A793AB1012A22D0637C7BBBB4
:1090A800BDE83840FFF794BFD3E905128D1AB5F52E
:1090B800805F94BF521902F580529A619142EDD1B6
:1090C80002284FF0000308BF19462372104B18BF3F
:1090D8000D211868FFF70AFF0E490F48FFF7C6FA77
:1090E800DCE71A6901321A615B699A42E7E7E368CB
:1090F8000133082B01D8E360D0E70023E360DFE702
:10910800BDE8384007F078B838BD00BF482A0020CD
:10911800602A00205C2A0020382A002000F0FD0385
:10912800012B08D1044B00225A74421E5042504170
:109138001874FFF74DBF7047482A002010B5064C39
:10914800201DFFF751FB28B9637C1BB9BDE810400F
:10915800FFF73EBF10BD00BF482A00202DE9F341AC
:1091680080460D460F4801A916461F46FFF719FA13
:109178000446A8B11C22002107F0D8FA2D0B0123C0
:10918800237101A9C4F80080A760E56066610548FD
:10919800FFF731FAFFF7D2FF002002B0BDE8F081F7
:1091A8000420FAE7382A00202DE9F743814688464B
:1091B800104801A917461E46FFF7F3F90446B0B157
:1091C8001C22002107F0B2FA00250A9BA36001A91E
:1091D8002571C4F80090C4E9037866610548FFF773
:1091E8000AFAFFF7ABFF284603B0BDE8F083042076
:1091F800FAE700BF382A00202DE9F047B0F80690BA
:109208004479D2F800A09DF8208009FB04F4043CBE
:1092180006460AEB0300A0420F4688BFA4EB030AE8
:10922800191DC2F800A0B1FBF9F509FB15114DB9DC
:10923800A9EB0104544528BF5446BAF1000F04D1E4
:10924800BDE8F0873668013DF1E704317B197018F5
:109258002246B8F1000F0ED001461846AAEB040AC0
:1092680007F03BFAD145254436684C464FF00001DB
:1092780028BF5446E1E71946F0E7FFF7C1BAF8B549
:1092880046790146721E0546002393422D6803D392
:109298000024A64202D8F8BD0133F6E70F68284635
:1092A800FFF7E8FA01343946F3E72DE9F843068A6F
:1092B800CD1C0746FFF7BBFA043E35440446B5FB10
:1092C800F6F5F0B14FF48073EDB28380C680013DAE
:1092D800076081464FF00008A84512D23846FFF7CC
:1092E800A6FA064648B163790133637108F10108AB
:1092F800C9F8000007608146EEE72046FFF7BFFF88
:1093080034462046BDE8F88301210430FFF756BAF9
:1093180010B5012104460430FFF75BFA10F0FF0F87
:1093280004D12046BDE81040FFF7A9BF10BD1FB506
:1093380004AC44F8042D002200922246FFF75CFF9B
:1093480004B010BD1FB504AC44F8042D01220092EE
:109358002246FFF751FF04B010BD33DF704741DFED
:1093680070470000064B10B500241C70054B1C60AC
:10937800BFF35F8F0449054800F0C0F9204610BDCF
:109388006D2A0020702A0020180D0300642A00208E
:1093980007B502A8002300F8013DFEF7C7F9F1EE72
:1093A800103A23F09F03E1EE103ABFF35F8F0A4BA8
:1093B8004022C3F884219DF80700FEF7DBF906F088
:1093C8002BFF20B1FFF7CBFF03B05DF804FB20BFF4
:1093D80040BF20BFF8E700BF00E100E070B5264CB1
:1093E800054601212046FFF7A8F9BFF35F8F2646FF
:1093F80038B9042D0AD0214B1A781AB1BFF35F8F00
:10940800206070BD1E4A157001221A701D4C1C4D3B
:109418006368BBB9FDF738FCFDF70EFA0028FBD1ED
:10942800174B1B78023B012B14D8BFF34F8F1649FB
:10943800164BCA6802F4E0621343CB60BFF34F8F48
:1094480000BFFDE71B682878984788B1204600F0E0
:109458005FF9DDE706F0E0FE08B1FFF77EFF4FF0A9
:1094680080430122C3F80025BFF34F8F20BFFDE7DB
:10947800BFF35F8F3060C4E7702A00206D2A002098
:109488006C2A0020642A002000ED00E00400FA05A0
:10949800026813685268934291BFD01A80680130FD
:1094A800801888BFC01A7047036881681A685B68AB
:1094B8008B4234BF01330023D31A584258417047B6
:1094C800F7B5044602A8002300F8013D0D46FEF753
:1094D8002DF92046FFF7E8FF10B1237C002B3CD183
:1094E8002268A66853685168B14234BF013100212F
:1094F800516030B11168A068814234BF0131002148
:109508001160E2686068511E072920D8DFE801F081
:1095180004101F141F1F1F182A78C2542046FFF773
:10952800B7FF23689A68824200D29860002415E049
:109538002A8820F81320F1E72A6840F82320EDE76D
:10954800D5E9006700EBC300C0E90067E6E72946F4
:1095580002FB030007F0C1F8E0E704249DF80700C8
:10956800FEF708F9204603B0F0BD37B5054602A856
:10957800002400F8014DFEF7D9F80C22214628688E
:1095880007F0D4F89DF80700FEF7F4F803B030BDF3
:10959800036818685B68C31A58425841704773B526
:1095A800054602A8002300F8013D0C461646FEF7C2
:1095B800BDF82846FFF7ECFF002832D129680B6870
:1095C8002EB90A68A868824238BF561C0E60EA683D
:1095D8006968501E07281ED8DFE800F0040E1D1227
:1095E8001D1D1D16CB5C237000249DF80700FEF797
:1095F800C1F8204602B070BD31F813302380F3E77C
:1096080051F823302360EFE701EBC301D1E90023D0
:10961800C4E90023E8E703FB0211204607F05DF8E0
:10962800E2E70524E1E7836800225A609A60C3E90B
:109638000422DA601A6070472DE9F04106460F46A9
:1096480090461D468BB9B0687368D0E9031403F1DE
:10965800010C0A1B62450FD10024C8F800401DB355
:10966800FFF7CBF80020BDE8F0818068FFF7BCF871
:109678000028E8D01120F6E701EA030223409A42C5
:1096880038BF6444D8F800302CBFACEB0204641A2D
:109698009C4228BF1C463368C8F8004013443B600E
:1096A800C3681C44C460DDE72846DCE78268436879
:1096B800106910B50133946803441B1B8B420AD30D
:1096C8002144C2E902111046FFF794F800280CBFA4
:1096D8000820002010BD0420FCE7806808B58268D7
:1096E8000369D21A8A4207D31944C0E90411043025
:1096F800FFF783F8002008BD0420FCE70B684A68E0
:109708004360934208BF0023016008BF436070476D
:10971800436843B10268916852680B4493424360BE
:1097280004BF0023436070470D4930B5A1F594721A
:109738000225914201D800200EE08B1ADB1093FB22
:10974800F5F302EBC30452F83330834205D802D252
:1097580004F10802EDE7606830BD2146E9E700BF83
:10976800680E030008B5FFF7DFFF024B002808BFAB
:10977800184608BD2D0D0300054B1B68082B01BFBB
:10978800044B1868B0FA80F0400918BF00207047F1
:10979800300100103401001008B54FF0804300225A
:1097A800C3F80C21C3F81021C3F838254FF08052B4
:1097B80003F54043D2F80414C3F82015D2F808146E
:1097C800C3F82415D2F80C14C3F82815D2F81014CD
:1097D800C3F82C15D2F81414C3F83015D2F818149D
:1097E800C3F83415D2F81C14C3F84015D2F8201465
:1097F800C3F84415D2F82414C3F84815D2F828142D
:10980800C3F84C15D2F82C14C3F85015D2F83014FC
:10981800C3F85415D2F83414C3F86015D2F83814C4
:10982800C3F86415D2F83C14C3F86815D2F840148C
:10983800C3F86C15D2F84424C3F87025FFF79CFFD1
:1098480010B1384B384A1A60FFF796FF18B1374BFA
:10985800FB22C3F81825FFF78FFF48B13449354B71
:109868000A681B6822F00F0203F00F0313430B6012
:10987800FFF782FF18B1304B4FF400721A604FF0B7
:109888008043D3F80024D20744BF6FF00102C3F825
:1098980000242A4AD2F8883043F47003C2F888308A
:1098A800BFF34F8FBFF36F8F4FF01023D3F8002211
:1098B800002A03DBD3F80432002B2FDA204B0122D5
:1098C800C3F80425D3F80024002AFBD04FF0102257
:1098D8001221C2F80012D3F80024002AFBD04FF05E
:1098E80010231222C3F80422154B1A46D3F8001489
:1098F8000029FBD00021C3F80415D2F80034002B4E
:10990800FBD0BFF34F8F0D490E4BCA6802F4E062DB
:109918001343CB60BFF34F8F00BFFDE70A4B0B4AE1
:109928001A6008BD8C5600404881030000F00040D2
:10993800E40E0040580200104096024000ED00E09E
:1099480000E001400400FA05001D00200090D0034B
:10995800074B1B5C1F2B8ABF064A4FF0A04203F03F
:109968001F03D2F80405D840C04300F00100704737
:109978002612030000030050074B1B5C1F2B86BFF9
:1099880003F01F0305494FF0A041012202FA03F337
:10999800C1F80C35704700BF2612030000030050C1
:1099A800074B1B5C1F2B86BF03F01F0305494FF0B5
:1099B800A041012202FA03F3C1F80835704700BF3D
:1099C800261203000003005008B50020FFF7E8FF47
:1099D8000120FFF7E5FF0220FFF7E2FF0320BDE8C3
:1099E8000840FFF7DDBF08B50020FFF7C5FF0120DD
:1099F800FFF7C2FF0220FFF7BFFF0320BDE80840C2
:109A0800FFF7BABF0A4B185C1F288ABF094B4FF0F3
:109A1800A04300F01F00D3F804250121814021EA6A
:109A280002000A40C3F80805C3F80C25704700BFB8
:109A38002612030000030050074B1B5C1F2B8ABF34
:109A4800064A4FF0A04203F01F03D2F81005D84091
:109A5800C04300F0010070472212030000030050C9
:109A68000B2809D00C2809D0182809D019280CBFB0
:109A780003204FF0FF3070470020704701207047E7
:109A880002207047014B185C704700BF2212030088
:109A9800C20710B504460CD54FF0A0430322C3F803
:109AA8003427C3F83827C3F83C27C3F84027FFF703
:109AB8008BFFA3070AD54FF0A0430C22C3F82C272D
:109AC800C3F83027C3F86027C3F8642710BD000027
:109AD80038B5084C04F108030546002818BF1C4691
:109AE80023682BB11A6822605B6828469847F7E715
:109AF80038BD00BF7C2A002020B9054B01225A70CE
:109B0800FFF7E6BF012802D1014A9070F8E77047D5
:109B1800742A002020B9034B01225A70FFF7D8BFDE
:109B2800704700BF742A002038B50B4C237883B9DE
:109B38000A486360A3602361E36000F0D1F805463A
:109B480006F06AFB08B900F0D9F80123237028460B
:109B580038BD8525FBE700BF742A0020019B020061
:109B680037B502A80023094C00F8013DFDF7DEFDDA
:109B7800E368013BE360E56815B900F0D3F8A57028
:109B88009DF80700FDF7F6FD03B030BD742A0020EC
:109B9800012813B509D003D303281BD002B010BD88
:109BA8000F4B0122C3F88020F8E702A800230D4CD0
:109BB80000F8013DFDF7BAFD23780BB9FFF7B4FFB4
:109BC800E3689DF807000133E3600123A370FDF704
:109BD800D1FDE3E700F092F8FFF7C2FFDEE700BF30
:109BE80000E100E0742A00201FB503788DF80030EA
:109BF80043680193037A8DF80830C3680393054AD4
:109C0800054B684653F8213052F82110984705B0A3
:109C18005DF804FB882A0020902A00201FB50378ED
:109C28008DF800304368019383688DF80830C36865
:109C38000393054A054B684653F8213052F8211022
:109C4800984705B05DF804FB882A0020902A002078
:109C5800F0B5194B0678DFF870E043F82620174B6B
:109C680094460A6943F826204B7F0EF806300C46C6
:109C780007460FCC89B06D460FC594E80F0085E8FC
:109C88000F001EF80630049653B1BCF1000F0C4AC1
:109C9800694608BF0022381D00F0E8FD09B0F0BD94
:109CA800BCF1000F074A694608BF002207F10C0003
:109CB80000F0C2FBF2E700BF902A0020882A0020AB
:109CC800F19B0200259C0200982A002000F18040A8
:109CD800002382B0036003680193019B02B07047C0
:109CE800054A13792BB90121106011715371184677
:109CF80070478520704700BF9C2A0020084B1A68CF
:109D0800D20706D4C02283F800230122C3F8802199
:109D18001A604FF080430122C3F81825704700BF2E
:109D280000E100E0044B01221A604FF08042D2F8B3
:109D38001834DB03FBD470470C000040124B1B683F
:109D480010B573B14FF48070FFF7C0FF4FF0804338
:109D58000122C3F808230D4B587910B95A711B68B2
:109D680098470B4B1B6873B14FF48270FFF7AEFF37
:109D78004FF080430222C3F80823044B01201B68DC
:109D8800BDE81040184710BD000100409C2A002083
:109D98000401004000F1804000F5C040002382B07B
:109DA800036003680193019B02B0704703681F2B8F
:109DB80083BF03F01F03036001484FF0A0407047C2
:109DC8000003005007B502AB43F8040D1846FFF72F
:109DD800EDFF019B00EB8300D0F8003723F44033FC
:109DE800C0F80037D0F8003743EA0141C0F800173F
:109DF80003B05DF804FB0000054B4FF0FF32072865
:109E080043F8202084BF1B1883F85820704700BFF0
:109E1800A42A002010B5174C94F86A3043BBFF21E0
:109E2800E2180133302B82F83010F9D10021C8B282
:109E3800FFF7E2FF01310C29F9D1062200210E4873
:109E480006F074FC0D4BC02283F806234022C3F8A9
:109E580080214FF4BE701A60FFF79CFF084B4FF04B
:109E68000042C3F80423012384F86A30002010BD9F
:109E78000820FCE7A42A0020082B002000E100E0CD
:109E880000600040034B93F86A00003018BF0120BF
:109E9800704700BFA42A0020F7B5404F3B1804467E
:109EA80093F93030002B944675DA8B78C3F340036E
:109EB800002B15BF0025082508200C20854202D15B
:109EC800042003B0F0BD57F8252001324FEA85067B
:109ED80049D1381947F825C080F8305013B97B1993
:109EE80083F858408B785A071BD4D8073DD502A869
:109EF80040F8084DFFF75AFF009B00EB8300D0F8AD
:109F0800003723F00203C0F800372548E20804F0C0
:109F1800070C012303FA0CF310F802C043EA0C0300
:109F28008354887891F800C010F002002AD006F116
:109F3800804303F5C0432402D3F8102522F44F329E
:109F480022F44072C3F810254FEA0C4CD3F81025C0
:109F580004F47C540CF4403C44EA0C041443C3F865
:109F680010450020ADE70135A8E702A84A7840F877
:109F7800044DFFF71BFF019B03F5E073920040F8C7
:109F88002320C2E7083D3D4495F8604044EA8C1C14
:109F980085F860C095E7082093E700BFA42A002051
:109FA800082B002073B5224C2518064695F9302059
:109FB800072A1ADD224492F858309B09032B10D146
:109FC80002A840F8046DFFF7F1FE019AD0F81035A9
:109FD800D340DB0707D402213046FFF7F3FE02B077
:109FE80070BD012BF7D00321F6E7D3B2072BF6D8C3
:109FF800930003F1804303F5C043D3F8100540F004
:10A008000100C3F8100502F14000800080B2FFF79C
:10A01800C1FE0029E3D095F9303054F82330002BE5
:10A02800DDD0012303FA02F2024BC3F80423D6E77A
:10A03800A42A00200060004007B502AB43F8040DD5
:10A048001846FFF7B3FE019BD0F81005D84000F082
:10A05800010003B05DF804FB2DE9F04F002489B03E
:10A06800CDE902445F4A604E604D01211368A2F5B4
:10A07800C040012B80B206D1D6F804330B4202D07F
:10A08800FFF788FE0C430432AA424FEA4101EDD1A2
:10A09800574B1B68012B0ED14FF4BE70FFF77AFEA9
:10A0A8004FF0A04344F00044D3F810350293514BCD
:10A0B800D3F81035039314F0FF0F1AD04E4F002534
:10A0C8000126344210D0AB0003F1804303F5C043AE
:10A0D800D3F81005D3F8101557F82530C0F305202C
:10A0E800C1F3014103B198470135082D4FEA4606EF
:10A0F800E7D1002C72DA04AE0023049373604FF0AA
:10A10800FF33CDE906333C4F4FF0010800252C46BC
:10A118007B1993F96020531C47D0D2B222F0C009B2
:10A1280008A84FEAD90300EB030B02F007011BF85C
:10A13800080C08FA01F1084237D007EB0900920928
:10A1480090F9300057F820A0BAF1000F05D1032A82
:10A158002BD1F05C0843F05401E0032AF9D001A8A0
:10A16800CDF80490FFF722FE019B03F5E07350F849
:10A1780023301BF8180C0842C3F3014305D0022B07
:10A1880013D1032A0BD1114604E0032B0DD1032A66
:10A1980005D102214846FFF715FE0134E4B2BAF1B1
:10A1A800000F02D011464846D0470135042DAFD1E3
:10A1B800A4B14FF0A0430299D3F8102503F54073DA
:10A1C8009142D3F8103502D10399994206D00292F0
:10A1D8000393049A059B0692079397E709B0BDE895
:10A1E800F08F00BF00610040006000402061004027
:10A1F8007C61004000030050A42A0020014B1B682A
:10A20800184700BF102B00200D4B984237B50D465C
:10A2180010D102A8002300F8013DFDF787FA094B89
:10A228001C7914B901221D601A719DF80700FDF709
:10A23800A1FA14B9002003B030BD1120FBE700BF1C
:10A2480000200040102B0020034B984201BF034B15
:10A2580000221A601A71704700200040102B00205D
:10A268000023435082B043580193019B02B07047CA
:10A278000A4610B54FF48E71FFF7F2FF136A916822
:10A28800C95C136A01331362C0F81C1510BD8B69D1
:10A298000A4610B54FF4847123B9FFF7E1FFD0F8EF
:10A2A800183510BDFFF7DCFF536AD168D0F81805E0
:10A2B800C854536A01335362F3E700001FB5012302
:10A2C8008DF80030044BCDE90110D3E9001268463F
:10A2D800904705B05DF804FB182B002030B54C4AB8
:10A2E800D2F8043313F4007F85B015464FD0D2F866
:10A2F8002431002B4BD04FF492711046FFF7B0FF7A
:10A308004FF40173C2F80833424B93F8291009B986
:10A31800012151603E4902228DF80020D1F88024A5
:10A32800C1F8802403929A690292DA6801920022A5
:10A33800C3E906226846D3E9001290473448D0F8AA
:10A348001C315BB133490A6A4B699A420A464BD2BF
:10A3580091F82830002B47D1FFF78AFF2C4AD2F812
:10A36800443193B14FF4A2711046FFF779FF294B9E
:10A3780093F8291009B1012111609A692AB10022C4
:10A388009A61586AD968FFF799FF05B030BDD5F8CA
:10A3980004335B07D2D5D5F80831002BCED01D4C3D
:10A3A8001B482146FFF773FF636AA2699A42234656
:10A3B800C4D1E269E1684AB12369E3600023606AB5
:10A3C800A261E3616362FFF779FFB7E794F8292098
:10A3D8000AB901226A600E4A4FF40170C2F80803F4
:10A3E80000229A61586AEEE74FF48E710848FFF729
:10A3F80037FF51690029B1D00023029191688DF887
:10A408000030019153616846D2E900139847A5E7E7
:10A4180000200040182B00201F2886BF00F01F00D6
:10A42800044B4FF0A04300F5E070022243F82020CF
:10A43800704700BF000300502DE9F843664B0479CC
:10A4480091462C2202FB0432064692F82A200D4639
:10A458009846002A40F0BC8060490068FFF7D4FEA7
:10A468000746002840F0B68029684A1C10D01F29EA
:10A4780087BF01F01F035A4A0B464FF0A042012044
:10A48800984003F5E073C2F80805032042F823005A
:10A498006868431C0DD01F288BBF00F01F030346BC
:10A4A8004F4A4FF0A04203F5E0734FF0000C42F81A
:10A4B80023C03368AA6995F814C0C3F824256A7DB7
:10A4C800BCF1010F4CEA0202C3F86C25C3F814056D
:10A4D800C3F80C152BD1A968481C0DD01F298BBFB8
:10A4E80001F01F020A463E484FF0A04002F5E07214
:10A4F8004FF0000C40F822C0E868421C13D01F2817
:10A5080087BF00F01F0C364A84464FF0A0424FF038
:10A51800010E0EFA0CFE0CF5E07CC2F808E54FF0CF
:10A52800030E42F82CE0C3F80805C3F810152C23D5
:10A53800634308EB0302C2F804902A6948F8032031
:10A54800B9F1000F31D04FF48E7130682D7FFFF7CD
:10A5580087FE30684FF4A271FFF782FE3268214B04
:10A56800C2F80433120B53B2002BA8BF03F16040AA
:10A578004FEA53134FEA4511BABF1B4802F00F05C3
:10A5880000F561404FEA8303C9B203F16043B4BFE9
:10A59800415580F8001303F5614302F01F020121C1
:10A5A80001FA02F2C3F880211A6033680422C3F862
:10A5B80000252C2303FB04830022C3E9062283F829
:10A5C80029205A61012283F82A203846BDE8F883F9
:10A5D8000827FAE71127F8E7182B0020E5A2020060
:10A5E800000300508000020014ED00E02DE9F04166
:10A5F80003680479254D0022C3F800252C2202FBAC
:10A6080004520646526872B1214AC3F80823190B4E
:10A618004AB20120520901F01F0100FA01F120326B
:10A628001C4840F82210D3F80C05D3F81485D3F849
:10A638000815D3F810754FF0FF329042C3F814256F
:10A64800C3F80C25C3F80825C3F8102501D0FFF777
:10A65800E3FEB8F1FF3F02D04046FFF7DDFE7A1C6B
:10A6680002D03846FFF7D8FE4B1C02D00846FFF749
:10A67800D3FE3068FFF7E8FD2C2303FB04540023C6
:10A6880084F82A306360BDE8F08100BF182B0020F1
:10A698008402020000E100E02DE9F843224F067928
:10A6A8004FF02C0909FB067480466569002D37D1E7
:10A6B8006261A16025624FF48E71006884F82850A9
:10A6C800FFF7CEFDD8F80000012383602146FFF78D
:10A6D800CFFD6368A1462BBBD8F80050226A636996
:10A6E8009A4212D3D8F80030D3F81C21002AFBD0A4
:10A6F8000122DA6000202C2303FB06760023736115
:10A70800BDE8F88394F8283043B9D5F81C31002BFC
:10A71800F8D049462846FFF7ABFDDFE70F20EAE708
:10A728001120EDE72846EBE7182B002000234350C3
:10A7380082B043580193019B02B070471FB50123B3
:10A748008DF80030054B8DF8080001916846D3E973
:10A758000012904705B05DF804FB00BF442B0020B1
:10A768007FB5384AD2F82461002E49D010464FF4FC
:10A778009271FFF7DBFF02238DF80030D2F88034A6
:10A78800C2F880340393D2F83C358DF808302E4B4C
:10A79800DA6801920022C3E906226846D3E900126A
:10A7A8009047284AD2F8443173B14FF4A271104649
:10A7B800FFF7BCFF244B996931B100219961D2F8A8
:10A7C8003C05D968FFF7BAFF1E4AD2F82031ABB171
:10A7D8004FF490711046FFF7A9FF1B4B596969B1F7
:10A7E800D2F84C158DF80810002299688DF80020D1
:10A7F80001915A616846D3E90012904704B070BDD0
:10A80800D2F81031002BCCD04FF488711046FFF7E6
:10A818008DFF0D4BD2F83C0599698842C1D1DC699E
:10A82800D96864B1D2F8005225F02005C2F8005268
:10A838001A699C61DA60DE61FFF780FFB1E79C610D
:10A84800FAE700BF00200040442B00201F2886BFE5
:10A8580000F01F00044B4FF0A04300F5E070022207
:10A8680043F82020704700BF000300502DE9F8434B
:10A878006A4B06799146242202FB0632044692F876
:10A8880020200D469846002A40F0C480644900689C
:10A89800FFF7BAFC0746002840F0BE802868421C33
:10A8A80010D01F2887BF00F01F035E4A03464FF0F1
:10A8B800A0420121994003F5E073C2F8081503216D
:10A8C80042F8231069684B1C0DD01F298BBF01F07B
:10A8D8001F030B46534A4FF0A04203F5E0734FF0B5
:10A8E800000C42F823C02368AA6995F814C0C3F87D
:10A8F80024256A7DBCF1010F4CEA0202C3F86C25DD
:10A90800C3F80C05C3F814152BD1A968481C0DD041
:10A918001F298BBF01F01F020A4642484FF0A04092
:10A9280002F5E0724FF0000C40F822C0E868421CC3
:10A9380013D01F2887BF00F01F0C3A4A84464FF0F7
:10A94800A0424FF0010E0EFA0CFE0CF5E07CC2F8A6
:10A9580008E54FF0030E42F82CE0C3F80805C3F8E9
:10A9680010152423734308EB0302C2F804902A69E4
:10A9780048F80320B9F1000F3BD04FF488712068E4
:10A988002D7FFFF7D3FE4FF490712068FFF7CEFEBE
:10A998004FF492712068FFF7C9FE20684FF4A27146
:10A9A800FFF7C4FE2268204BC2F80433120B53B2DF
:10A9B800002BA8BF03F160404FEA53134FEA45113B
:10A9C800BABF1A4802F00F0500F561404FEA830349
:10A9D800C9B203F16043B4BF415580F8001303F5D1
:10A9E800614302F01F02012101FA02F2C3F880213B
:10A9F8001A6023680822C3F80025242303FB068372
:10AA08000022C3E906225A61012283F82020384631
:10AA1800BDE8F8830827FAE71127F8E7442B002058
:10AA280069A70200000300501003020014ED00E0C3
:10AA38002DE9F04103680479254D0022C3F800256B
:10AA4800242202FB04520646526872B1214AC3F816
:10AA58000823190B4AB20120520901F01F0100FA1C
:10AA680001F120321C4840F82210D3F80C05D3F825
:10AA78001485D3F80815D3F810754FF0FF329042BB
:10AA8800C3F80C25C3F81425C3F80825C3F8102506
:10AA980001D0FFF7DBFEB8F1FF3F02D04046FFF7D9
:10AAA800D5FE7A1C02D03846FFF7D0FE4B1C02D0E8
:10AAB8000846FFF7CBFE3068FFF7C6FB242303FBED
:10AAC8000454002384F820306360BDE8F08100BF9F
:10AAD800442B00201003020000E100E001F0604375
:10AAE800B3F1005F2DE9F041074632D11C4B0679DE
:10AAF800242505FB063598466C6964BB6A61A96024
:10AB080000684FF49071FFF711FE4FF4AC7138688C
:10AB1800FFF70CFE3B686A69A968C3F84415C3F8D7
:10AB2800482501229A606A68BAB9D3F82011D3F887
:10AB3800582149B9002AF8D00F20242303FB0686A0
:10AB480000237361BDE8F081002A14BF0F200020A4
:10AB5800F3E71020F6E71120F4E72046F2E700BFFC
:10AB6800442B00201F288ABF094B4FF0A04300F058
:10AB78001F0003EB8000D0F8003723F44033C0F8FF
:10AB88000037D0F8003743EA0141C0F80017704792
:10AB9800000300500220FEF735BF00002DE9F04702
:10ABA80081460D46FEF75CFF0328044604D8012DB4
:10ABB80004D024D3022D2FD0BDE8F087194D4700CB
:10ABC8003A18A918AE5C4A7852B1DFF8688016487E
:10ABD80042464FF40041FCF755FD08B988F800904B
:10ABE8003B192B449A78114B1A55002EE4D0104B80
:10ABF8001B68002BE0D03046BDE8F04718470A48EC
:10AC0800FCF784FD074B04EB440213449E78074B82
:10AC18001B5DB342D0D1E8E7024B00EB40041C4473
:10AC28006678E2E7CC2B00208C2B0020E52B002057
:10AC3800E02B0020682B002002210078FFF7AEBF30
:10AC480008B5094B1B7853B10020FEF7A9FE012077
:10AC5800FEF7A6FE0320BDE80840FEF7A1BEBDE84A
:10AC68000840FEF7B1BE00BF692B0020F8B57B4C49
:10AC7800237805461BB100232370FFF7E1FF172D4A
:10AC880000F28880DFE805F00C17174354657680DA
:10AC9800888D888D959A9A9A9A9AC4C9D1D9E4E4EC
:10ACA800FFF7CEFF6E48FCF731FD6E4B00220446DD
:10ACB8001A702046F8BD0020FEF74AFEF8B10020C1
:10ACC800FEF76EFE022D0CBF4FF4E1614FF47A617E
:10ACD800644B1D704FF400404FF4FA740025E0FBFC
:10ACE80001454FF47A7200232046294605F0FAFB05
:10ACF800002201465A48BDE8F840FCF7C3BCFEF7FD
:10AD08003BFE022D0CBFC8214FF4C871E0E70020BC
:10AD1800FEF71EFE40B10020FEF742FE4FF44871D8
:10AD2800504B03221A70D5E7FEF726FEC821F7E735
:10AD38000020FEF70DFE38B10020FEF731FE4FF47B
:10AD48007A61484B0422EDE7FEF716FE4FF4C8710E
:10AD5800F7E70020FEF7FCFD48B10020FEF720FED3
:10AD6800404B05221A7041F69A110022C2E7FEF7FD
:10AD780003FEF5E70020FEF745FE3A4B06221A705F
:10AD8800002240F6CD41B5E70020FEF7F5FD354B32
:10AD980007221A7000248CE701202070FEF732FE8B
:10ADA800EEE701202070FEF72DFE00224FF48041CF
:10ADB800A0E7FEF718FE2B4B0C22EAE72A482B4E99
:10ADC800FCF7A4FCD5F1110504461CD0D8B9012D17
:10ADD80013D0C8235D434FF400474FF4FA700021A5
:10ADE8004FF47A720023C7FB050105F07BFB22466E
:10ADF80001461D48FCF746FC04460220FEF7BCFD50
:10AE08000123337055E70220FEF7CAFD0023F8E757
:10AE1800FFF716FF134B1222BBE7FFF711FF0020C5
:10AE2800FEF7AAFD0F4B1322B3E7FFF709FF012036
:10AE3800FEF7A2FD0B4B1422ABE7FFF701FF002042
:10AE4800FEF79AFD0120FEF797FD064B1522A0E7B5
:10AE5800FEF7C9FD034B1D709CE700BFDC2B0020EB
:10AE6800AC2B0020E42B00206C2B0020692B002049
:10AE7800044B1B68DB0703D5034B1878FFF7F6BEB6
:10AE8800704700BFD82B0020E42B0020032801D8EE
:10AE9800FEF7D2BD00207047044B1B6813F0010376
:10AEA80001D0FFF7E3BE1846704700BFD82B00203B
:10AEB80038B51C4B18601C4B10F00204054619608D
:10AEC8001AD01A4B1A480E221A700F22DA70102262
:10AED8009A7111225A72042140F26662FCF7D4F882
:10AEE800044648B9FCF724F9044628B90146114A32
:10AEF8001148FCF7B5FB0446EB0711D50120FEF716
:10AF0800C7FD6CB921460D4A0D48FCF7A9FB04465C
:10AF180030B90C4A0C480121BDE83840FCF7A0BB09
:10AF2800204638BDD82B0020E02B0020CC2B002059
:10AF38004C12030041AC02007012030079AE02000B
:10AF4800741203009DAB02006C120300032812D890
:10AF5800012A0BD1012908D100F10E02D2B200EB6F
:10AF680040000C4B1A540020704700220129F6D0EB
:10AF780009D3022901D007207047064B00EB400097
:10AF880018444270EFE7034B00EB4000184482700E
:10AF9800E9E700BFCC2B0020032808B506D8FEF748
:10AFA80071FD0321FFF7DEFD002008BD0620FCE748
:10AFB80008B5012202210020FFF7C8FF08B10728C1
:10AFC80010D1072202210120FFF7C0FF08B107288E
:10AFD80008D100210A220846FFF7B8FF10B1072858
:10AFE80008BF002008BD00000388102B10B502D050
:10AFF800112B1ED010BD1A4C2168B1B90122084688
:10B00800FFF7A4FF08B1072824D107220221012055
:10B01800FFF79CFF08B107281CD104220221002059
:10B02800FFF794FF08B1072814D123680133236080
:10B03800E0E70B4A1368013B1360002BDAD1FFF7F6
:10B04800B7FF0028D6D0074B1B68002BD2D0BDE82D
:10B0580010401847034B1B68002BE6D09847E4E7DD
:10B06800F02B0020EC2B002008B50020FFF794FF00
:10B0780008B1062806D10120FFF78EFF10B1062877
:10B0880008BF002008BD00000D4B10B518600C4625
:10B0980029B10120FFF7FAFE40B102232370094BC2
:10B0A8001B6853B9BDE81040FFF782BFFFF7EEFEFB
:10B0B80008B10B23F2E72070F1E7002010BD00BFB4
:10B0C800EC2B0020F02B002075DF704776DF7047EF
:10B0D8008FDF704710B501460446044804F0DAFED5
:10B0E80021460348BDE8104004F0C6BC342C0020BB
:10B0F800FC2B002038B50B78012B04460D4602D0F6
:10B10800022B23D038BD0A1D2E48498804F014FFAD
:10B1180008B1FCF723F80021688803F04FF81128DC
:10B1280002D008B1FCF71AF8204604F06FFF08B106
:10B13800FCF714F8244B25482549C01AC008000418
:10B1480040F00300BDE83840FBF7E2BC214B1B7818
:10B15800002BD7D01C4B1D4C1F49E41AE4082404CB
:10B1680044F003042046FBF7D3FC2A891B492046F8
:10B17800FBF7D2FC2B7923B1AA8919492046FBF7A2
:10B18800CBFC6B7923B12A6916492046FBF7C4FC2E
:10B19800AA7A15492046FBF7BFFC20461349FBF75E
:10B1A800B7FC2A7912492046FBF7B6FC6A7911499F
:10B1B8002046FBF7B1FCAA790F492046BDE8384084
:10B1C800FBF7AABC342C0020740803009C08030079
:10B1D800DD140300402C00205B0A03000B1503005C
:10B1E80026150300411503005515030070150300CB
:10B1F8007615030093150300B01503002DE9F041FF
:10B208000B78012B88B00C462ED005D3022B00F00A
:10B21800CF8008B0BDE8F08101F10802498804F048
:10B22800FDFD08B1FBF79AFF0024694E2546E1B2FF
:10B23800304604F0CFFD082803D008B1FBF78EFF95
:10B2480001350134092CF2D1624B63481D60634B10
:10B25800634900221A60634BC01AC008000440F01A
:10B268000300FBF755FCD4E75C4E5A4F336883B9AB
:10B278003B6873B15B4B584D5B49ED1AED082D04E3
:10B2880045F003052846FBF743FC58492846FBF7D9
:10B298003FFC94F80880B8F1080F25D8DFE808F0DB
:10B2A80005050505050541586A001E220021684666
:10B2B80005F03CFA484D4B4B227DED1AED081D2A4E
:10B2C8004FEA054527D82169684605F006FA484B34
:10B2D800684653F82840FBF773FA22460346454967
:10B2E80045F00300FBF722FC33683A6801339342C8
:10B2F80033608ED13B4B38483B49C01AC008000424
:10B3080040F00300FBF704FC002333603B603A4B3A
:10B3180001221A707DE7394945F00100FBF7F8FB77
:10B32800E2E7304B2C4D364A3649ED1AED082D042C
:10B3380045F003052846FBF7EFFB2269324928460A
:10B34800FBF7EAFBA26931492846FBF7E5FBCBE7A7
:10B35800244B214D2E4A2B49ED1AED082D0445F0BA
:10B3680003052846FBF7D8FB227D21692846FBF711
:10B3780001FCB9E71B4B184D264A2249ED1AED0886
:10B388002D0445F003052846FBF7C6FB227C22491D
:10B398002846FBF7C1FB628A20492846FBF7BCFB1D
:10B3A800A28A1F492846FBF7B7FBE28A1D49CBE76B
:10B3B8000C4B0948097A0E4AC01AC008000452F812
:10B3C8002120A389184940F00100FBF7AFFB20E7D3
:10B3D800FC2B0020F82B00209C080300F42B0020F5
:10B3E8007C120300740803005B0A0300A312030025
:10B3F80090140300B7120300402C0020BE12030073
:10B40800F2120300FC120300001303002D130300C3
:10B41800591303008D13030094130300AE130300A4
:10B42800C8130300E2130300FC13030010B504461D
:10B438000020FFF731FD08B1FBF790FE24B9FFF7B4
:10B4480013FE08B1FBF78AFE012010BD08B50020E5
:10B45800FDF722FD18B1144B01221A7008BD134BD9
:10B4680013481449C01AC008000440F00300FBF751
:10B478004FFB114911480B78012262F3C4030B708A
:10B4880001F088FF08B1FBF769FE0C4801F04CFF9A
:10B4980008B1FBF763FE0120FFF7FEFC0028DDD0B2
:10B4A800BDE80840FBF75ABE302C002074080300A2
:10B4B8009C080300DD15030014210020442C002003
:10B4C80003881F2B13B528D005D8102B11D0112BAA
:10B4D8002DD002B010BD3B2B36D0562B34D0212BAB
:10B4E800F7D102A9002321F8043D8088FFF7F0FD79
:10B4F80018E08188174800F0A7FD08B1FBF72EFE79
:10B508000720FFF7C9FC08B1FBF728FE00F076FB1F
:10B518000028DED1FFF79AFFDBE700F108018088F9
:10B52800FFF7D2FD0028D4D0FBF718FED1E70A4B6D
:10B538000A4C82880A49E41AE4082404037A44F08D
:10B548000300FBF7F3FAE1E713218088FFF7BEFD5C
:10B55800E8E700BF041D0020740803009C080300EE
:10B568004114030010B5044603F0F6FA204603F030
:10B5780017FB204603F016F923780C2B03D1BDE8FE
:10B588001040FFF763BF10BD072810B513D00A2875
:10B598000CD0042824D113210020FFF797FD30F0A8
:10B5A80008031DD0BDE81040FBF7D8BD0020BDE85A
:10B5B8001040FDF713BF0B4C23788BB90A4B0B488F
:10B5C8000B49C01AC008000440F00300FBF7A0FABA
:10B5D8000123237001F042FEBDE81040FFF736BF9B
:10B5E80010BD00BF742D0020740803009C080300E0
:10B5F8006F1403000238012806D8044B1A781AB1D0
:10B6080000221A70FFF722BF704700BF302C0020BD
:10B6180030B585B010224FF6FF71684605F086F800
:10B628004FF6FF7002F03AFE00244FF6FF75A8426D
:10B6380011D12146684602F0CFFD08B1FBF78EFD17
:10B648002146684602F0EAFD062802D008B1FBF759
:10B6580085FD05B030BD082CEBD02DF8140002F0A4
:10B668001DFE0134E3E7000010B50378042BB0B0E9
:10B6780036D0062B2ED0012B2AD13822002102A841
:10B6880005F054F830AC8022002110A805F04EF8DF
:10B69800082344F8BC3D0093FFF7BAFF234610AADD
:10B6A800694602A802F0A2FD009B144C0BB9019B4D
:10B6B8000BB1237853B1124912480B786FF3C403C6
:10B6C8000B7001F067FE08B1FBF748FD00232370FB
:10B6D80030B010BD40680028FAD0FBF73FFDF7E70F
:10B6E800094B0A480A49C01AC008000440F0030080
:10B6F800FBF70EFAFFF7AAFEEAE700BF742D002059
:10B7080014210020442C0020740803009C08030026
:10B71800CD15030008B5037883B10B4B0B480C49D2
:10B72800C01AC008000440F00300FBF7F1F902F06A
:10B73800D3FD38B1BDE80840FBF710BDBDE80840AF
:10B74800FFF784BE08BD00BF740803009C0803000F
:10B75800EC1503007FB54FF400410020FAF7E0FF35
:10B7680008B1FBF7FBFCFAF713FFFBF749FF08B139
:10B77800FBF7F4FC61490320FFF79AFB08B1FBF7DC
:10B78800EDFC02A90020FFF77FFC08B1FBF7E6FCFF
:10B798009DF808309A1E534253418DF80330FDF747
:10B7A800E1FD08B1FBF7DAFC04F0BAFC08B1FBF7DD
:10B7B800D5FC002302A90120029304F077FD08B10B
:10B7C800FBF7CCFC02A804F023FE08B1FBF7C6FC8B
:10B7D80000214B4801F006FC08B1FBF7BFFC02F062
:10B7E80049FC08B1FBF7BAFC464802F0C5FC08B1B1
:10B7F800FBF7B4FC0522002102A804F097FF9DF88E
:10B80800083043F00103032203F0F10362F3061347
:10B818006FF3C7138DF8083007238DF8093010230C
:10B828008DF80A309DF80B3013438DF80B309DF8D6
:10B838000C3002A813438DF80C3002F0B5FC08B1A7
:10B84800FBF78CFC304800F0C5FB08B1FBF786FC21
:10B858002E4B2F48029302A904F054FB08B1FBF7C2
:10B868007DFC0021102202A804F060FF294B2A4821
:10B87800059302A904F0C8F808B1FBF76FFC274B41
:10B88800186801901022002102A804F04FFF01233C
:10B898008DF80C308DF81430214A224B224802933F
:10B8A80002A901F0DDFC08B1FBF758FC01AA03214D
:10B8B8001D4801F0A8FC08B1FBF750FC0022042148
:10B8C800194801F0B7FC08B1FBF748FCFFF7A0FEE8
:10B8D800164B17481749C01AC008000440F0030067
:10B8E800FBF716F90DF10300FFF714FFFAF7A4FFB1
:10B8F8000028FBD1FDF74CFDF8E700BF91B5020029
:10B908001C2C00206DB50200DDB00200FDB0020065
:10B91800342C002005B20200FC2B00207812030012
:10B9280071B6020014210020442C00207408030082
:10B938009C080300B414030064DF704770B5C0B1FD
:10B948004AB116880024B44203D305196D789D4284
:10B9580008D0A14201D800200BE0055D01352C4438
:10B96800A4B2F0E7A142F6D9A31C1380005D013808
:10B9780080B270BDF0B587B0002306460D4610466C
:10B98800ADF8063002AA10230DF105018DF8053037
:10B99800FFF7D2FF16B9002007B0F0BD0028FAD192
:10B9A8009DF80530042B06D0102B2DD0022BF3D197
:10B9B8001C46032301E01C460523BDF806207AB97E
:10B9C8000DF1060229463046FFF7B8FFBDF80630EC
:10B9D8002BB923460DF106023046FFF7AFFF0546A7
:10B9E800BDF80670002FD6D00024A542D3D9E0199F
:10B9F8009DF8052002A9304404F039FE38B19DF8BD
:10BA080005301C44A4B2F0E706240723D5E701203B
:10BA1800C2E7F7B5174601900E4691B1019C6CB18B
:10BA280000252C46294601A8FCF751FE18B13946D5
:10BA3800A8B2B04701340135142DF3D1204603B024
:10BA4800F0BD0C46FAE773B50191019C06466CB14E
:10BA580000252C46294601A8FCF739FE18B106EB4B
:10BA6800440301349D800135142DF3D130463460F0
:10BA780002B070BD2DE9F04303888488112B8DB086
:10BA8800064640D01A2B43D0102B16D1294DAB684F
:10BA98000CA8DB4340F8303D55F8041FFCF778FE4E
:10BAA800009901A8FFF7CFFF0027019B9F4207D30A
:10BAB800132C18D90420FBF751FB0DB0BDE8F08317
:10BAC80001AB03EB47034FF00008B3F8049005EB14
