:020000022000DC
:106000000000042079630200616302006363020000
:10601000656302006763020069630200000000001C
:106020000000000000000000000000006B630200A0
:106030006D630200000000006F63020071630200E4
:106040000580020073630200658202007363020030
:106050007363020073630200C18002007363020075
:1060600073630200736302007363020073630200D0
:1060700073630200736302007363020073630200C0
:1060800073630200356F02007363020073630200E2
:10609000D16F020039910200F59202007363020091
:1060A0007363020073630200736302007363020090
:1060B0007363020073630200000000000000000030
:1060C0007363020073630200736302007363020070
:1060D0007363020073630200736302007363020060
:1060E0007363020073630200736302000000000028
:1060F00000000000736302000000000073630200F0
:10610000000000000000000000000000000000008F
:10611000000000000000000000000000000000007F
:10612000000000000000000000000000000000006F
:10613000000000000000000000000000000000005F
:10614000000000000000000000000000000000004F
:10615000000000000000000000000000000000003F
:10616000000000000000000000000000000000002F
:10617000000000000000000000000000000000001F
:10618000000000000000000000000000000000000F
:1061900000000000000000000000000000000000FF
:1061A00000000000000000000000000000000000EF
:1061B00000000000000000000000000000000000DF
:1061C00000000000000000000000000000000000CF
:1061D00000000000000000000000000000000000BF
:1061E00000000000000000000000000000000000AF
:1061F000000000000000000000000000000000009F
:10620000364937480A1A02D0072291438D4635494C
:1062100035480A1A06D00722914381F309880222E1
:1062200082F3148831483249324A00F045F8324846
:106230003249334A00F040F832483349334A00F0DB
:106240003BF833483349344A00F036F83348344990
:10625000344A00F031F834483449354A00F02CF81B
:1062600034483549354A00F027F835483549002289
:1062700000F02DF834483549002200F028F8344861
:106280003449091A082903DB002202600430016046
:10629000314A90471F482049884205D0026804309F
:1062A00003B4904703BCF7E700208646EC46002085
:1062B00000212A4A9047FEE7884207D0521A05D0AB
:1062C000037801300B700131013AF9D170478842EF
:1062D00002D002700130FAE770470000000004208D
:1062E00000E00320000004200000042040A502007C
:1062F000582D0020AC2D0020D8630200D863020086
:10630000A297020040A50200582D0020582D002021
:1063100058980200589802005898020058980200B5
:1063200058980200589802005898020058980200A5
:1063300040A5020094A50200AC2D0020AC2D002049
:10634000AC2D0020F53A0020F83A0020F83A002061
:10635000F83A0020F85A0020A1630200D58D02000F
:10636000FEE7FEE7FEE7FEE7FEE7FEE7FEE7FEE705
:10637000FEE7FEE7704700BF1048804710484FF027
:106380000701884385460F4880470F48016841F45C
:1063900070010160BFF34F8FBFF36F8FFFF730BF06
:1063A0000A480B490B4A884207D0521A05D0037895
:1063B00001300B700131013AF9D170477563020069
:1063C00000000420457B020088ED00E058980200A0
:0863D000582D0020582D00207B
:1063D8007047000007B5044B0093044A402300F0BF
:1063E80032F803B05DF804FBF9630200AD2D00201C
:1063F8002DE9F84389461446B2B10F4B0F4E0325D9
:10640800002743F00108224609EB0701002002F0AB
:1064180057FE0744241A48B933782BB14FF47A4011
:10642800C047013D02D13570BDE8F88301233370C0
:10643800002CE8D1F8E700BF60980200AC2D0020DE
:10644800704702F071BEF0B595B01C461646084676
:106458000D4601F0B4FA1A9B0D93CDE908640024A7
:106468002346082205A928460A948DF82C400C9446
:1064780001F0C3FA079B0293BDF81830ADF80C3051
:10648800BDF81A30ADF80E309DF814308DF8114073
:1064980003F00302012A1DD1BDF81440059EC3F381
:1064A800C203C4F383148DF81030A20008230EA988
:1064B800284601F0A2FAC6F3952608AB00932246B7
:1064C80002AB0EA9304600F0F1FB284601F07BFA3A
:1064D80015B0F0BD022AF8D1BDF81640C3F3C203C7
:1064E800A4098DF810300827082C264628BF08264E
:1064F8003B4632460EA9284601F07FFAA41B08AB9A
:1065080002AA31460EA8374400F034FC002CEBD127
:10651800DBE70000014B01221A7070472E2E002085
:106528007047000070B50E4D06460FCD88B06C461A
:106538000FC495E80F0084E80F0008A9002E4FF05B
:106548000603084A41F8203D08BF0022064801F02A
:10655800D1FC08B100F064FC044B1E7008B070BD9B
:10656800749802001D650200582D0020ED2D0020B2
:1065780007B5044B0093044A4023FFF764FF03B0B8
:106588005DF804FB95650200EE2D002038B50D4B33
:106598000D4D002018700D4804782D5DD2B21C46B0
:1065A80065B1043002F0CAFA08B100F039FC084BB2
:1065B8001A7812B12378002BFBD038BD0C3002F0CA
:1065C8009BF8F1E72E2E002020350020582D0020C2
:1065D800ED2D002008B50848084A0378D35C3BB184
:1065E800043002F055FA0020BDE80840FFF79ABFD2
:1065F8000C3002F02BF8F6E7582D0020203500204B
:106608000120FFF78FBF000038B50A4DFFF719FFCB
:106618000421284600F0B8FA074B01245C71FFF703
:10662800EFFF042105F1100000F0AEFA034B5C7196
:1066380038BD00BF389802006C2D0020742D002052
:10664800037813F0040216D003F00303012B03D0E0
:10665800022B09D0012070470A6800880232C0F373
:10666800831002440A60F5E70B684288023303EBA3
:1066780092130B60EEE71046704700002DE9F04FCB
:1066880089B00546861C08A8484C019200230F468D
:1066980000F8113D00F07EFE23683B60D4E9012339
:1066A8001344226801339B1A04F21C4704F5836AD9
:1066B80004F21448B3421AD3019A0023002A6DD079
:1066C800012262F3010343F0040365F3891321688F
:1066D800A2689DF80F000A4003320E4444F82230A5
:1066E800266000F07BFE012009B0BDE8F08F012193
:1066F800384600F0A9FE504600F0BCFE404600F0C7
:10670800B9FE0DF120096068D4F808B049F8100DF9
:1067180000EA0B00033004EB80004946FFF790FFC6
:10672800049BB0B90BEA030204EB8202D16805911D
:106738009A1C013303EA0B0B04EB8B0C01F00303E7
:10674800012B0492DCF80CB020D0022B04D0834635
:106758000BE00BEA0300DDE7BDF816309B090333B5
:106768004FEA1B4B02EB93030493404600F085FE6F
:1067780008B1049B63605946384600F065FED4E9C9
:1067880001231344226801339B1A93E7BDF81430A0
:10679800C3F383134FEA1B4B1344E5E7022262F36A
:1067A800010343F0040365F39F5390E7002F002093
:1067B8000B4B0C48FF2210B59A600022C3F818242E
:1067C800C3E90022C3F8142483F8202401F0B0F8A8
:1067D800044610B9044801F059F9204610BD00BF1D
:1067E800002F0020CC970200C498020030B50A4C54
:1067F80071B10A4A0A49121BD20800239A4201D1F0
:10680800002030BD31F82350854202D00133F5E72E
:10681800034654F83300F4E7E09702003898020082
:10682800582D0020094B013903EBC000032909D872
:10683800DFE801F00A020406042070470079704777
:10684800407970470020704702207047E0970200A7
:10685800034BD3E90030C31A58425841704700BF70
:10686800002F00202DE9F04387B0FFF7F1FF06461F
:10687800002840F0FC807F4DC5F81804BFF34F8F07
:106888006868AC6806AF47F8100D2040033005EB88
:1068980080003946FFF7D4FE029B18B1D5F81824BA
:1068A800002A5FD004EA0302991C013305EB820237
:1068B800234005EB8303D268DB68049302F00303EB
:1068C800022B0392029162D1BDF80E306A484FEA5A
:1068D8009318B8F1500FC14628BF4FF0500969F31B
:1068E8008F1309F10801ADF80E3001F039F80746A9
:1068F800002800F0A78001F062F803A9002308220D
:10690800384601F06FF8029924EA01060136B6000C
:10691800B14535D95FFA89F97EB3F6B2A9EB060914
:10692800214003315FFA89F4B146544E05EB8101E9
:1069380008234A46384601F055F836B109F10803EC
:1069480022463146384601F04DF8029B08F103080B
:1069580003EB98030293D5F81834002B4BD1D5F8E4
:1069680010445BE02A689A4204D86A60304607B04F
:10697800BDE8F08304EA030088E740493446D7E7D6
:106988002140033108234A4605EB8101DAE7012B50
:1069980058D1BDF80C303848C3F38311062928BFF5
:1069A800062161F3891302318900ADF80C3000F03B
:1069B800D7FF0746002845D001F001F80023082238
:1069C80003A9384601F00EF80026BDF80C20C2F3E2
:1069D8008312B31C96424FEA8303BCD202994A1C25
:1069E80021400331029205EB81010422384600F070
:1069F800F9FF0136E9E7384600F0E5FFFFF728FF21
:106A080080F00100C6B2B1E7E3685B7923B123687F
:106A180039461B6820469847E3681C68002CF3D168
:106A2800384600F0D0FF06A800F8114D00F0B2FC7F
:106A3800D5F818340BB9029B6B609DF8070000F07D
:106A4800CDFCDBE7D5F8104454B90D4B0D480E4981
:106A5800C01AC008000440F0020000F06FF8CDE74B
:106A6800236820469B689847E3681C68ECE7002683
:106A78007CE700BF002F0020CC9702000C2F0020DD
:106A8800E097020008980200D09802002DE9F74F1D
:106A9800284C80460F46924601A9012218469B467B
:106AA800D4F80890FFF7EAFD88B3019D0026A91CD9
:106AB8005E4506EB010234D100211F4800F0A4FC1A
:106AC80080F310006A1C02EA090204EB8202000447
:106AD80005EA0903033340EA1840D06014F823207C
:106AE80068F3C50204F8232034F8232066F38912DA
:106AF80024F8232054F82320012167F39F2244F827
:106B0800232061F301026FF3820204F8232094F832
:106B180020341BB1FFF7A6FE0028FBD103B0BDE867
:106B2800F08F09EA020204EB82025AF82630D36099
:106B38000136BDE7002F00201C33002000231A4631
:106B4800FFF7A4BF13B502AC012344F8042D224675
:106B5800FFF79CFF02B010BD07B5CDE90023022363
:106B68006A46FFF793FF03B05DF804FB1FB5CDE954
:106B78000023069B0293079B03936A460423FFF7AF
:106B880085FF05B05DF804FB30B50F49D1F8102436
:106B9800002314463CB9C468237152B9C1F81004E3
:106BA8002260184630BDE46825799D4206D02468E5
:106BB800F0E7D268116821601060F2E701330A2B10
:106BC800E7D14FF0FF33ECE7002F0020094A38B532
:106BD8000123D2F8104482F820341D4604B938BD88
:106BE800E3685D71236820465B689847E3681C6822
:106BF800F4E700BF002F0020037A052B10B50C46E0
:106C08000FD0437A23B1084A0849204600F096FC81
:106C18000749204600F092FC2046BDE8104000F0ED
:106C280082BC002AF8D0F3E71B99020020990200E1
:106C3800469F0200C38873B504460D4633B1144A13
:106C480000921449144A284600F078FC217A052954
:106C58001CD0637A4BB1A088FFF7E4FD0F4B1049B5
:106C680053F82020284600F069FC227A0D4BA088B2
:106C780053F822600021FFF7B9FD0B49034632465D
:106C8800284602B0BDE8704000F058BC02B070BDA4
:106C98001B9902002B99020023990200E898020030
:106CA8002099020050990200439902002DE9F0430F
:106CB80085B01F460C9D002306460C46904695F865
:106CC8000C902B7329463846FFF7B4FFB8F1060F2E
:106CD80009D8DFE808F00412181F283340003146AD
:106CE800284600F02BFC002229463846FFF784FF8F
:106CF80085F80C9005B0BDE8F08322683146284637
:106D080000F01CFCEFE7D4E900233146284600F0E8
:106D180015FCE8E7A36800933146D4E90023284628
:106D280000F00CFCDFE7E3680193A36800933146A9
:106D3800D4E90023284600F001FCD4E72369029334
:106D4800E3680193A36800933146D4E900232846F9
:106D580000F0F4FBC7E76369039323690293E368D0
:106D68000193A36800933146D4E90023284600F034
:106D7800E5FBB8E708292DE9F84F80460E46174687
:106D88001C4636D8002593F80C901D7319461046FA
:106D9800FFF750FFDFF87CA0DFF87CB0AE422AD9BD
:106DA80018F805205946204600F0C8FB0135082D83
:106DB800F4D11649DFF864B0204600F0BFFB002587
:106DC800AE421DD918F805A0504602F033FC002841
:106DD80014BF52462E225946204600F0AFFB01351B
:106DE800082DEDD1012221463846FFF705FF84F82A
:106DF8000C90BDE8F88F5146204600F09FFBD5E780
:106E08000349204600F09AFBE9E700BF1699020003
:106E180014990200129902000C99020018990200B4
:106E28001FB50021039001AA44F20100CDE9011128
:106E380000F004F805B05DF804FB000010B572B668
:106E4800FFF7C4FEFFF70EFD0028FBD1104B114CD5
:106E58001149E41AE408240444F00100FFF76EFE27
:106E68000E4B1B68DB0700D500BE0D4944F002003D
:106E7800FFF764FEBFF34F8F0A490B4BCA6802F451
:106E8800E0621343CB60BFF34F8F00BFFDE700BF45
:106E9800E097020008980200AF990200F0ED00E0C8
:106EA800BB99020000ED00E00400FA05094A537896
:106EB80091780133DBB2994208BF002311789942D7
:106EC8001FBF03705078182303FB002014BF043041
:106ED80000207047BC330020024B4FF43C6043F065
:106EE80001031847D099020038B50C4B0C4C4FF4ED
:106EF8000032C3F8802001254FF48033C4F84833AA
:106F0800C4F808336560FFF7E7FF064BA560002467
:106F18001C60FFF7E1FF044B1C7038BD00E100E086
:106F280000100140D8340020C9340020F8B51F4BA8
:106F38001F491B680025C1F84051C1F84451C1F8E8
:106F48004851C1F84C51C1F80051C1F804514BB334
:106F5800D1F8044517490968641A24F07F442F467C
:106F68001A68A24209D8A41A15441A7CDE691AB113
:106F78001F74D3E905209047AEB90F4B0F4A197813
:106F880013788B4205D10133DBB2022B08BF0023F3
:106F9800137012780A4B43F822500A4B4FF48012B0
:106FA800C3F80021F8BD3346DAE700BFDC3400201F
:106FB80000100140D8340020D4340020D5340020FB
:106FC800CC34002000E100E02DE9F74F9E4A9F49AC
:106FD800137809789E4D99423CD00133DBB2022BDD
:106FE80008BF002313709B4912789B4B0F6853F816
:106FF80022003B1823F07F4300220B602B681646C3
:107008001446944613B942B12B6006E019688142D0
:107018000ED902B12B60091A19604FF001082B68CC
:10702800DFF83CA200930027BEB9DFF83CB260E06D
:10703800401A0C44D968C3F800C0D3F81CE031B139
:107048003A1922F07F42C3E90121DE611E4601227E
:107058007346D7E70026B046E1E73446F6697D4A2D
:1070680063681268DFF804C2A068991A21F07F41AA
:10707800614500F2A58001442160012222742A683A
:107088000023C4E90133E361002A40F0A2802C60A8
:10709800CAE75A1C9BF80210D2B291428BF8002022
:1070A80004BF00228BF80020182202FB03B32A68D1
:1070B80019799C68022974D003297ED0012918D136
:1070C800217CB1B9DA6862601A69A2605A699B6961
:1070D800A361624BE2601B78002BC0D06160BEE701
:1070E8009C4200F093809946DB69002BF8D100237D
:1070F80023749BF800309BF801209A42C9D12B6871
:107108002FB9009A934202D1B8F1000F43D0002B57
:1071180079D0D3F800A0524D4E4BD5F804751C68B1
:10712800DFF84C813E1B98F8003026F07F46033686
:107138009BB94FF48033C5F84433C5F80433494B41
:107148004FF400324FF00109C3F880211A60C5F8E6
:107158000090FFF7C1FE88F80090B2452CBF544458
:10716800A41924F07F44C5F84045D5F80435DB1B45
:1071780023F07F43E41B033324F07F44A3420AD95E
:10718800D5F80435C5F84035FFF7A6FE354B4FF462
:107198000032C3F80021314B00221A7003B0BDE859
:1071A800F08F13469146A0E71174D2690123002A93
:1071B800FAD1002B9DD02A609BE700231946F6E7F9
:1071C800D31A23F07F43834234BFC31A00232360BA
:1071D80053E721681368994213D8591A1160E2617C
:1071E80055E7091AD8691A4638B10346186888421B
:1071F800F7D3401A1860184613462160E061DC6135
:1072080012E71346F2E7FFF76FFEC4E74C450DD1CE
:10721800D3692B6053B90F4801920121CAF80810AD
:1072280003600E4B1970FFF757FE019AE169236856
:10723800C9F81C1011B1086803440B602B689A4206
:1072480018BF012753E700BFD4340020D5340020ED
:10725800DC340020D8340020CC340020C83400208E
:107268000010014000E100E0BC330020FEFF7F0079
:10727800C934002008B5FFF737FE104B00200B2259
:1072880018809A700E4B18600E4B18700E4B1870C1
:107298000E4B4FF48012C021C3F8802183F81413D9
:1072A8001A6002F18042A2F56F22C2F8080583F83D
:1072B8001113074BD2F804251A6008BDBC3300200F
:1072C800DC340020D4340020D534002000E100E074
:1072D800D8340020074B9B784BB132B128B10368F2
:1072E800187C20B959745A617047072070470820E4
:1072F800704700BFBC3300202DE9F7431D4FBB7812
:1073080005460E4690469BB390B304292ED943698F
:1073180073B3437C02A80024012B00F8014D0CBF75
:107328008946A14600F036F80DF10600FFF7BEFDCC
:10733800D0B101230370104B4560D3F80435C0E980
:107348000498C0E902369DF806307B709DF8070066
:1073580000F044F824B9094B4FF48012C3F8002117
:10736800204603B0BDE8F0830424EFE70724F7E7DD
:107378000824F5E7BC3300200010014000E100E0DC
:10738800014BD3F80405704700100140401A20F063
:107398007F40704770B5EFF3108672B60C4A946858
:1073A80001239CB993600B4B0B4DD3F880102940F7
:1073B8001160C3F88050D3F8841051604FF0FF3249
:1073C800C3F88420047006B962B670BD0370FAE78A
:1073D800E034002000E100E0FC06FFBD084B9A689D
:1073E80010B55AB150B9EFF3108172B6054A1C684E
:1073F80014605C685460986001B962B610BD00BF43
:10740800E034002000E100E050E8002F0B4640E89F
:10741800003C9CF0000FF7D11046704750E8003F41
:1074280043EA010240E8002C9CF0000FF6D1104618
:10743800704750E8002F02EA010340E8003C9CF046
:10744800000FF6D11046704750E8003F03EB0102E9
:1074580040E8002C9CF0000FF6D11046704750E829
:10746800003FA3EB010240E8002C9CF0000FF6D18E
:10747800104670470121FFF7D1BF0021FFF7D9BFA0
:1074880010B590B1D0E9012301689B1ADBB20A60FC
:10749800013BDBB2FF2B026802D10020107110BD46
:1074A80011684C1C14600B70F2E70E20F7E737B533
:1074B800054602A8002400F8014DFFF76BFF2A6873
:1074C8006B68116899420ED9481E106011F8014C7A
:1074D800EB68298A01FB0434AB6811791B1ADBB20B
:1074E800994238BF13719DF80700FFF777FF2046D0
:1074F80003B030BD37B5054602A8002300F8013DAA
:107508000C46FFF747FF2A681368591C1160E968A1
:10751800641A298AB4FBF1F41C709DF80700FFF780
:107528005DFF03B030BD826810B504462AB14369D7
:107538000168006998470023A36010BD0EB403B525
:10754800039929B102AA04AB42F8043D00F06AF895
:1075580002B05DF804EB03B07047826830B4046889
:10756800551C8560A154D0E901329A4202D330BC3F
:10757800FFF7D9BF30BC70472DE9F84F9946DDE9D0
:107588000A431746824688460A460126BA420FD25F
:107598004E4538BF4E4613F0010B01D164B90024A3
:1075A8000125B9F1010F1AD909F1FF397D43F8E72F
:1075B800B2FBF7F20136E9E79B070ED5B9F1000FE8
:1075C8000CBF30252025A642EAD2013C2946504668
:1075D800FFF7C3FF002CF6D1E1E72025F3E7B8FB5E
:1075E800F5F39F42E2D9DFF83890B8FBF5F350463F
:1075F80019F8031005FB1388FFF7AFFFB5FBF7F584
:10760800002DF2D1BBF1000F02D00CB1A64201D37C
:10761800BDE8F88F20215046013CFFF79EFFF4E7B4
:10762800D69902002DE9F74F054690460E460029E7
:1076380000F03A8116F8011B002958D0252940F09E
:10764800D180002702E047F001071646324612F8BB
:10765800013B2D2BF7D0302B04D02B2B05D147F035
:107668000407F2E747F00207EFE700242A2B06F1A8
:1076780001021BD1D8F80030191D1B68C8F800108A
:107688001C44164633782E2B1CD101364FF0000AC5
:10769800314611F8012BA2F13000092814D80A2329
:1076A80003FB0A23A3F1300A0E46F1E712F8013C66
:1076B800A3F130010929E5D80A2101FB0434303C43
:1076C8001646D3E74FF0000A324612F8011B01F0C4
:1076D800FB0068281646F8D0692916D054D85829CE
:1076E80070D00ED825297DD03378002BA2D12B7BE2
:1076F800002B00F0D980284603B0BDE8F04FFFF713
:1077080012BF632968D06429EED1D8F80020D2F8D6
:107718000090111D89EAE972C8F80010A2EBE9721D
:107728004FF0010B092A61DCD34538BFD3462CB191
:10773800B9F1000F01DB790700D5013CBA0702D582
:10774800BAF1000F04D0FB0702D4002C54D1002456
:10775800B9F1000F58DAC9F100092D212846FFF7C1
:10776800FCFE07F00302022A05D1BAF1000F02D18C
:10777800002C4DD10024CDE9004753460A22494642
:107788002846FFF7F9FEAFE7732954D016D87029B9
:10779800AAD1D8F800301A1DC8F800203021284690
:1077A8001C68FFF7DAFE78212846FFF7D6FE00228C
:1077B8000823CDE9003221461022E1E775292FD0B0
:1077C800782991D1D8F800100A1DC8F80020CDE911
:1077D8000047534610222CE0D8F800301A1D1978BB
:1077E800C8F800202846FFF7B8FE7DE70A230BF10A
:1077F800010B92FBF3F295E7A345A9D22021284675
:10780800013CFFF7AAFEA0E77807AAD52B21A5E738
:10781800A345B0D230212846013CFFF79EFEA7E7DA
:10782800D8F80010CDE900470A1DC8F800205346D3
:107838000A220968A4E7D8F800301A1DC8F8002001
:10784800F907D3F8009012D54F46A7EB090B17F8A4
:10785800011B41B9A345BFF447AF20212846013C8D
:10786800FFF77BFEF6E72846FFF777FEEDE7B9F16D
:10787800000F17D0484601F060FF0746BC4200D908
:1078880054B909F1FF3919F8011F00293FF42CAF49
:107898002846FFF762FEF6E720212846013CFFF75D
:1078A8005CFEEBE74F46E9E703B0BDE8F08F2DE952
:1078B800F047B0F806904479D2F800A09DF82080EF
:1078C80009FB04F4043C06460AEB0300A0420F46F9
:1078D80088BFA4EB030A191DC2F800A0B1FBF9F593
:1078E80009FB15114DB9A9EB0104544528BF5446AD
:1078F800BAF1000F04D1BDE8F0873668013DF1E721
:1079080004317B1970182246B8F1000F0ED00146D9
:107918001846AAEB040A01F092FED14525443668C0
:107928004C464FF0000128BF5446E1E71946F0E7FE
:10793800FFF7A6BDF8B546790146721E0546002335
:1079480093422D6803D30024A64202D8F8BD013320
:10795800F6E70F682846FFF7CDFD01343946F3E70F
:107968002DE9F843068ACD1C0746FFF7A0FD043E23
:1079780035440446B5FBF6F5F0B14FF48073EDB22B
:107988008380C680013D076081464FF00008A84506
:1079980012D23846FFF78BFD064648B163790133AA
:1079A800637108F10108C9F8000007608146EEE735
:1079B8002046FFF7BFFF34462046BDE8F883012183
:1079C8000430FFF741BD10B5012104460430FFF72C
:1079D80046FD10F0FF0F04D12046BDE81040FFF728
:1079E800A9BF10BD1FB504AC44F8042D00220092B5
:1079F8002246FFF75CFF04B010BD1FB504AC44F885
:107A0800042D012200922246FFF751FF04B010BD59
:107A180041DF7047064B10B500241C70054B1C60F5
:107A2800BFF35F8F0449054800F039F8204610BDC0
:107A3800F4340020F8340020E8990200EC340020E7
:107A480007B502A8002300F8013DFFF7A3FCF1EEFB
:107A5800103A23F09F03E1EE103ABFF35F8F0A4B11
:107A68004022C3F884219DF80700FFF7B7FC01F016
:107A780023FC20B1FFF7CCFF03B05DF804FB20BF67
:107A880040BF20BFF8E700BF00E100E083680022A4
:107A98005A609A60C3E90422DA601A6070470B687A
:107AA8004A684360934208BF0023016008BF4360EF
:107AB8007047436843B10268916852680B44934227
:107AC800436004BF00234360704700000D4930B590
:107AD800A1F594720225914201D800200EE08B1A7C
:107AE800DB1093FBF5F302EBC30452F83330834207
:107AF80005D802D204F10802EDE7606830BD2146DE
:107B0800E9E700BF389B020008B5FFF7DFFF024B2B
:107B1800002808BF184608BDFD990200054B1B68E0
:107B2800082B01BF044B1868B0FA80F0400918BF51
:107B380000207047300100103401001008B54FF0E4
:107B480080430022C3F80C21C3F81021C3F838255C
:107B58004FF0805203F54043D2F80414C3F82015BF
:107B6800D2F80814C3F82415D2F80C14C3F8281551
:107B7800D2F81014C3F82C15D2F81414C3F8301521
:107B8800D2F81814C3F83415D2F81C14C3F84015E9
:107B9800D2F82014C3F84415D2F82414C3F84815B1
:107BA800D2F82814C3F84C15D2F82C14C3F8501581
:107BB800D2F83014C3F85415D2F83414C3F8601549
:107BC800D2F83814C3F86415D2F83C14C3F8681511
:107BD800D2F84014C3F86C15D2F84424C3F87025C1
:107BE800FFF79CFF10B1384B384A1A60FFF796FF31
:107BF80018B1374BFB22C3F81825FFF78FFF48B1A0
:107C08003449354B0A681B6822F00F0203F00F0352
:107C180013430B60FFF782FF18B1304B4FF400722B
:107C28001A604FF08043D3F80024D20744BF6FF0A6
:107C38000102C3F800242A4AD2F8883043F47003BA
:107C4800C2F88830BFF34F8FBFF36F8F4FF0102308
:107C5800D3F80022002A03DBD3F80432002B2FDAF2
:107C6800204B0122C3F80425D3F80024002AFBD0B6
:107C78004FF010221221C2F80012D3F80024002A73
:107C8800FBD04FF010231222C3F80422154B1A46DA
:107C9800D3F800140029FBD00021C3F80415D2F84A
:107CA8000034002BFBD0BFF34F8F0D490E4BCA6831
:107CB80002F4E0621343CB60BFF34F8F00BFFDE7D0
:107CC8000A4B0B4A1A6008BD8C56004048810300D5
:107CD80000F00040E40E00405802001040960240B8
:107CE80000ED00E000E001400400FA057C2D0020D2
:107CF8000090D00338B5084C04F108030546002865
:107D080018BF1C4623682BB11A6822605B68284696
:107D18009847F7E738BD00BF0435002020B9054B68
:107D280001225A70FFF7E6BF012802D1014A90707C
:107D3800F8E77047FC34002020B9034B01225A7041
:107D4800FFF7D8BF704700BFFC34002038B50B4C94
:107D5800237883B90A486360A3602361E36000F075
:107D680011F9054601F0A8FA08B900F019F901233C
:107D78002370284638BD8525FBE700BFFC3400206A
:107D8800257D020037B5184CA378054603F0FF029D
:107D98009BB110B143680120984700230DF10700FB
:107DA8008DF80730FFF7F6FAE3689DF8070001330E
:107DB800E360FFF713FB03B030BD0DF107008DF84A
:107DC8000720FFF7E7FA25B1226913463BB92A6075
:107DD8002561E368002BE7D100F0F6F8E4E79D425F
:107DE800F7D01B68F2E700BFFC34002037B502A8C3
:107DF8000023094C00F8013DFFF7CCFAE368013B8A
:107E0800E360E56815B900F0EDF8A5709DF8070086
:107E1800FFF7E4FA03B030BDFC340020012813B5A5
:107E280009D003D303281BD002B010BD0F4B012289
:107E3800C3F88020F8E702A800230D4C00F8013DA4
:107E4800FFF7A8FA23780BB9FFF780FFE3689DF8DE
:107E580007000133E3600123A370FFF7BFFAE3E7EC
:107E680000F09EF8FFF7C2FFDEE700BF00E100E088
:107E7800FC34002008B501F01FFA28B94FF0804300
:107E8800D3F81804C0F3004008BD00001FB50378FC
:107E98008DF8003043680193037A8DF80830C36881
:107EA8000393054A054B684653F8213052F82110D0
:107EB800984705B05DF804FB103500201835002000
:107EC8001FB503788DF800304368019383688DF8F7
:107ED8000830C3680393054A054B684653F82130B8
:107EE80052F82110984705B05DF804FB10350020C2
:107EF80018350020F0B5194B0678DFF870E043F824
:107F08002620174B94460A6943F826204B7F0EF823
:107F180006300C4607460FCC89B06D460FC594E86D
:107F28000F0085E80F001EF80630049653B1BCF127
:107F3800000F0C4A694608BF0022381D00F0C6FC35
:107F480009B0F0BDBCF1000F074A694608BF00221E
:107F580007F10C0000F0A0FAF2E700BF1835002086
:107F680010350020957E0200C97E020020350020D1
:107F780000F18040002382B0036003680193019BF5
:107F880002B07047054A13792BB9012110601171AD
:107F98005371184670478520704700BF243500206C
:107FA800084B1A68D20706D4C02283F8002301229E
:107FB800C3F880211A604FF080430122C3F81825C6
:107FC800704700BF00E100E008B54FF48270FFF78A
:107FD800CFFF4FF080430222C3F8042301229A60A6
:107FE80008BD0000044B01221A604FF08042D2F80D
:107FF8001834DB03FBD470470C000040124B1B689D
:1080080010B573B14FF48070FFF7B2FF4FF08043A3
:108018000122C3F808230D4B587910B95A711B680F
:1080280098470B4B1B6873B14FF48270FFF7A0FFA2
:108038004FF080430222C3F80823044B01201B6839
:10804800BDE81040184710BD00010040243500204D
:108058000401004000F1804000F5C040002382B0D8
:10806800036003680193019B02B0704703681F2BEC
:1080780083BF03F01F03036001484FF0A04070471F
:108088000003005007B502AB43F8040D1846FFF78C
:10809800EDFF019B00EB8300D0F8003723F4403359
:1080A800C0F80037D0F8003743EA0141C0F800179C
:1080B80003B05DF804FB00002DE9F04F002489B0FF
:1080C800CDE902445F4A604E604D01211368A2F574
:1080D800C040012B80B206D1D6F804330B4202D03F
:1080E800FFF7B8FF0C430432AA424FEA4101EDD131
:1080F800574B1B68012B0ED14FF4BE70FFF7AAFF38
:108108004FF0A04344F00044D3F810350293514B8C
:10811800D3F81035039314F0FF0F1AD04E4F0025F3
:108128000126344210D0AB0003F1804303F5C0436D
:10813800D3F81005D3F8101557F82530C0F30520EB
:10814800C1F3014103B198470135082D4FEA4606AE
:10815800E7D1002C72DA04AE0023049373604FF069
:10816800FF33CDE906333C4F4FF0010800252C467C
:108178007B1993F96020531C47D0D2B222F0C00972
:1081880008A84FEAD90300EB030B02F007011BF81C
:10819800080C08FA01F1084237D007EB09009209E8
:1081A80090F9300057F820A0BAF1000F05D1032A42
:1081B8002BD1F05C0843F05401E0032AF9D001A860
:1081C800CDF80490FFF752FF019B03F5E07350F8D8
:1081D80023301BF8180C0842C3F3014305D0022BC7
:1081E80013D1032A0BD1114604E0032B0DD1032A26
:1081F80005D102214846FFF745FF0134E4B2BAF140
:10820800000F02D011464846D0470135042DAFD1A2
:10821800A4B14FF0A0430299D3F8102503F5407399
:108228009142D3F8103502D10399994206D00292AF
:108238000393049A059B0692079397E709B0BDE854
:10824800F08F00BF006100400060004020610040E6
:108258007C610040000300502C350020014B1B6856
:10826800184700BF983500200D4B984237B50D468A
:1082780010D102A8002300F8013DFFF78BF8094B45
:108288001C7914B901221D601A719DF80700FFF7C7
:10829800A5F814B9002003B030BD1120FBE700BFDA
:1082A8000020004098350020034B984201BF034B43
:1082B80000221A601A71704700200040983500208B
:1082C8000023435082B043580193019B02B070478A
:1082D8000A4610B54FF48E71FFF7F2FF136A9168E2
:1082E800C95C136A01331362C0F81C1510BD8B6991
:1082F8000A4610B54FF4847123B9FFF7E1FFD0F8AF
:10830800183510BDFFF7DCFF536AD168D0F818059F
:10831800C854536A01335362F3E700001FB50123C1
:108328008DF80030044BCDE90110D3E900126846FE
:10833800904705B05DF804FBA035002030B54C4AE5
:10834800D2F8043313F4007F85B015464FD0D2F825
:108358002431002B4BD04FF492711046FFF7B0FF39
:108368004FF40173C2F80833424B93F8291009B946
:10837800012151603E4902228DF80020D1F8802465
:10838800C1F8802403929A690292DA680192002265
:10839800C3E906226846D3E9001290473448D0F86A
:1083A8001C315BB133490A6A4B699A420A464BD27F
:1083B80091F82830002B47D1FFF78AFF2C4AD2F8D2
:1083C800443193B14FF4A2711046FFF779FF294B5E
:1083D80093F8291009B1012111609A692AB1002284
:1083E8009A61586AD968FFF799FF05B030BDD5F88A
:1083F80004335B07D2D5D5F80831002BCED01D4CFD
:108408001B482146FFF773FF636AA2699A42234615
:10841800C4D1E269E1684AB12369E3600023606A74
:10842800A261E3616362FFF779FFB7E794F8292057
:108438000AB901226A600E4A4FF40170C2F80803B3
:1084480000229A61586AEEE74FF48E710848FFF7E8
:1084580037FF51690029B1D00023029191688DF846
:108468000030019153616846D2E900139847A5E7A7
:1084780000200040A03500201F2886BF00F01F0004
:10848800044B4FF0A04300F5E070022243F820208F
:10849800704700BF000300502DE9F843664B04798C
:1084A80091462C2202FB0432064692F82A200D46F9
:1084B8009846002A40F0BC8060490068FFF7D4FE67
:1084C8000746002840F0B68029684A1C10D01F29AA
:1084D80087BF01F01F035A4A0B464FF0A042012004
:1084E800984003F5E073C2F80805032042F823001A
:1084F8006868431C0DD01F288BBF00F01F0303467C
:108508004F4A4FF0A04203F5E0734FF0000C42F8D9
:1085180023C03368AA6995F814C0C3F824256A7D76
:10852800BCF1010F4CEA0202C3F86C25C3F814052C
:10853800C3F80C152BD1A968481C0DD01F298BBF77
:1085480001F01F020A463E484FF0A04002F5E072D3
:108558004FF0000C40F822C0E868421C13D01F28D6
:1085680087BF00F01F0C364A84464FF0A0424FF0F8
:10857800010E0EFA0CFE0CF5E07CC2F808E54FF08F
:10858800030E42F82CE0C3F80805C3F810152C2395
:10859800634308EB0302C2F804902A6948F80320F1
:1085A800B9F1000F31D04FF48E7130682D7FFFF78D
:1085B80087FE30684FF4A271FFF782FE3268214BC4
:1085C800C2F80433120B53B2002BA8BF03F160406A
:1085D8004FEA53134FEA4511BABF1B4802F00F0583
:1085E80000F561404FEA8303C9B203F16043B4BFA9
:1085F800415580F8001303F5614302F01F02012181
:1086080001FA02F2C3F880211A6033680422C3F821
:1086180000252C2303FB04830022C3E9062283F8E8
:1086280029205A61012283F82A203846BDE8F883B8
:108638000827FAE71127F8E7A0350020458302004C
:10864800000300508000020014ED00E02DE9F04125
:1086580003680479254D0022C3F800252C2202FB6B
:1086680004520646526872B1214AC3F80823190B0E
:108678004AB20120520901F01F0100FA01F120322B
:108688001C4840F82210D3F80C05D3F81485D3F809
:108698000815D3F810754FF0FF329042C3F814252F
:1086A800C3F80C25C3F80825C3F8102501D0FFF737
:1086B800E3FEB8F1FF3F02D04046FFF7DDFE7A1C2B
:1086C80002D03846FFF7D8FE4B1C02D00846FFF709
:1086D800D3FE3068FFF7E8FD2C2303FB0454002386
:1086E80084F82A306360BDE8F08100BFA03500201F
:1086F8008402020000E100E02DE9F843224F0679E8
:108708004FF02C0909FB067480466569002D37D1A6
:108718006261A16025624FF48E71006884F8285068
:10872800FFF7CEFDD8F80000012383602146FFF74C
:10873800CFFD6368A1462BBBD8F80050226A636955
:108748009A4212D3D8F80030D3F81C21002AFBD063
:108758000122DA6000202C2303FB067600237361D4
:10876800BDE8F88394F8283043B9D5F81C31002BBC
:10877800F8D049462846FFF7ABFDDFE70F20EAE7C8
:108788001120EDE72846EBE7A035002000234350F1
:1087980082B043580193019B02B070471FB5012373
:1087A8008DF80030054B8DF8080001916846D3E933
:1087B8000012904705B05DF804FB00BFCC350020DF
:1087C8007FB5384AD2F82461002E49D010464FF4BC
:1087D8009271FFF7DBFF02238DF80030D2F8803466
:1087E800C2F880340393D2F83C358DF808302E4B0C
:1087F800DA6801920022C3E906226846D3E900122A
:108808009047284AD2F8443173B14FF4A271104608
:10881800FFF7BCFF244B996931B100219961D2F867
:108828003C05D968FFF7BAFF1E4AD2F82031ABB130
:108838004FF490711046FFF7A9FF1B4B596969B1B6
:10884800D2F84C158DF80810002299688DF8002090
:1088580001915A616846D3E90012904704B070BD8F
:10886800D2F81031002BCCD04FF488711046FFF7A6
:108878008DFF0D4BD2F83C0599698842C1D1DC695E
:10888800D96864B1D2F8005225F02005C2F8005228
:108898001A699C61DA60DE61FFF780FFB1E79C61CD
:1088A800FAE700BF00200040CC3500201F2886BF13
:1088B80000F01F00044B4FF0A04300F5E0700222C7
:1088C80043F82020704700BF000300502DE9F8430B
:1088D8006A4B06799146242202FB0632044692F836
:1088E80020200D469846002A40F0C480644900685C
:1088F800FFF7BAFC0746002840F0BE802868421CF3
:1089080010D01F2887BF00F01F035E4A03464FF0B0
:10891800A0420121994003F5E073C2F8081503212C
:1089280042F8231069684B1C0DD01F298BBF01F03A
:108938001F030B46534A4FF0A04203F5E0734FF074
:10894800000C42F823C02368AA6995F814C0C3F83C
:1089580024256A7DBCF1010F4CEA0202C3F86C259C
:10896800C3F80C05C3F814152BD1A968481C0DD001
:108978001F298BBF01F01F020A4642484FF0A04052
:1089880002F5E0724FF0000C40F822C0E868421C83
:1089980013D01F2887BF00F01F0C3A4A84464FF0B7
:1089A800A0424FF0010E0EFA0CFE0CF5E07CC2F866
:1089B80008E54FF0030E42F82CE0C3F80805C3F8A9
:1089C80010152423734308EB0302C2F804902A69A4
:1089D80048F80320B9F1000F3BD04FF488712068A4
:1089E8002D7FFFF7D3FE4FF490712068FFF7CEFE7E
:1089F8004FF492712068FFF7C9FE20684FF4A27106
:108A0800FFF7C4FE2268204BC2F80433120B53B29E
:108A1800002BA8BF03F160404FEA53134FEA4511FA
:108A2800BABF1A4802F00F0500F561404FEA830308
:108A3800C9B203F16043B4BF415580F8001303F590
:108A4800614302F01F02012101FA02F2C3F88021FA
:108A58001A6023680822C3F80025242303FB068331
:108A68000022C3E906225A61012283F820203846F1
:108A7800BDE8F8830827FAE71127F8E7CC35002086
:108A8800C9870200000300501003020014ED00E043
:108A98002DE9F04103680479254D0022C3F800252B
:108AA800242202FB04520646526872B1214AC3F8D6
:108AB8000823190B4AB20120520901F01F0100FADC
:108AC80001F120321C4840F82210D3F80C05D3F8E5
:108AD8001485D3F80815D3F810754FF0FF3290427B
:108AE800C3F80C25C3F81425C3F80825C3F81025C6
:108AF80001D0FFF7DBFEB8F1FF3F02D04046FFF799
:108B0800D5FE7A1C02D03846FFF7D0FE4B1C02D0A7
:108B18000846FFF7CBFE3068FFF7C6FB242303FBAC
:108B28000454002384F820306360BDE8F08100BF5E
:108B3800CC3500201003020000E100E001F06043A2
:108B4800B3F1005F2DE9F041074632D11C4B06799D
:108B5800242505FB063598466C6964BB6A61A960E3
:108B680000684FF49071FFF711FE4FF4AC7138684C
:108B7800FFF70CFE3B686A69A968C3F84415C3F897
:108B8800482501229A606A68BAB9D3F82011D3F847
:108B9800582149B9002AF8D00F20242303FB068660
:108BA80000237361BDE8F081002A14BF0F20002064
:108BB800F3E71020F6E71120F4E72046F2E700BFBC
:108BC800CC3500201F2886BF00F01F00044A4FF054
:108BD800A042012303FA00F0C2F80C05704700BF59
:108BE8000003005072DF704773DF7047704708B5A5
:108BF8002A20FFF7E7FF2D20FFF7E4FF2F20FFF7DC
:108C0800E1FF1D20FFF7DEFF1F20BDE80840FFF74A
:108C1800D9BF000070B500283FD1204D2A7882B313
:108C2800012A30D0022A0CBF1E240024FEF7A8FB1C
:108C38001B4B1968FEF7AAFB1A492B781A4D4B747F
:108C48004FF47A7358434FF0FA73B0FBF3F02B7874
:108C5800241A012B8C74154C17D1154E132230464B
:108C680000F0EDFC266002232B70002213230F492D
:108C78001048A380FFF7B6FF78B1BDE87040FEF753
:108C8800CFB81E24D2E70524D0E70B4E1322304676
:108C980000F0D5FC26600123E6E770BDF43500201E
:108CA800F8350020812D0020802D0020FC35002083
:108CB80023370020942D0020243600201F2886BF4B
:108CC80000F01F00044A4FF0A042012303FA00F00D
:108CD800C2F80805704700BF0003005038B5114DB1
:108CE800296813291BDC11F001040FD11F20FFF79D
:108CF80069FF0131296000224FF400510A48FEF74C
:108D0800FBFA70B1BDE83840FEF78AB80029B8BF51
:108D18006442012C05D11F20FFF7D0FFE9E70023AB
:108D28002B6038BDF03500204438002038B5224C7F
:108D3800224DFFF75CFF2178B9B902232F202B7051
:108D4800FFF7BCFF1D20FFF7B9FF0A464FF470215B
:108D58001B48FEF7D1FA08B1FEF762F82B782370AA
:108D6800FEF70EFB174B186038BD02290BD1012303
:108D78002D202B70FFF7A2FF1D20FFF79FFF002279
:108D88004FF42031E4E70129E8D100212A20297095
:108D9800FFF794FF1F20FFF791FF09480A464FF499
:108DA8007021FEF7A9FA08B1FEF73AF800224FF44D
:108DB80048210548CDE700BFF5350020F4350020EF
:108DC80024380020F8350020443800201FB54FF41F
:108DD80000410020FDF7ECFC08B1FEF721F8FDF793
:108DE80013FCFEF7B3FF08B1FEF71AF80020FEF7F0
:108DF800C9FFFFF73FF80028FBD0FEF73BFA08B1A0
:108E0800FEF70EF8574A58480021FEF763FA08B1F2
:108E1800FEF706F8554A56480021FEF75BFA08B1F6
:108E2800FDF7FEFFFEF7F6FD08B1FDF7F9FF514A21
:108E380040F20F33C2F82837C2F83437C2F83C374B
:108E48004FF0A042C2F87437C2F87C37FFF7CFFE64
:108E580000F0F6F908B1FDF7E3FF04AC002344F88D
:108E6800043D0120214600F071FA08B1FDF7D8FF52
:108E7800204600F01DFB08B1FDF7D2FF3E4C3F4DE8
:108E88003F4828600A2300212370A023C4E9011366
:108E98004FF48073A3820123A375FF22A181A173DC
:108EA800A98000F0F5FB132236492868AA8000F053
:108EB800C6FB224629463448FFF794FE08B1FDF761
:108EC800AFFF324A0121062000F040F908B1FDF752
:108ED800A7FF2F4B012400201C70FFF727FF2A4B08
:108EE80021461878FFF780FE08B1FDF799FF294B56
:108EF800294C2A49E41AE408240444F005042046CD
:108F0800FDF71CFEE3234122CDE900322449DA2390
:108F1800A9222046FDF72AFE8223C121CDE900318E
:108F2800BC2298231F492046FDF720FE0023232258
:108F38001D492046FDF710FE012318221B49204633
:108F4800FDF70AFE1A4920460422FDF7FBFD1949E0
:108F58002046FDF7F3FDFDF785FC0028FBD1FEF761
:108F68006FFDF8E7358D020058A00200E58C02007D
:108F78005CA00200000300500C360020FC350020E5
:108F880024360020812D0020942D00201D8C020005
:108F9800F5350020E097020008980200149F0200AF
:108FA800499F02007E9F0200B49F0200E19F0200D9
:108FB8000CA0020022A002000369C1688B429DBF79
:108FC8008268D21802F1FF3203F1FF3394BF501ABE
:108FD800581A70472DE9F041D0E902670446F61B9C
:108FE8004068964288461546384405D900F027FB64
:108FF8003D44E560BDE8F0813246AD1B00F01FFB43
:109008002A4608EB0601606800F019FBF1E72DE934
:10901800F843C5680646894617464FF00008346984
:10902800B3687068A54228BFE418013C621B5C1B4A
:10903800BC4228BF3C46944228BF144649462844AF
:10904800224600F0FCFAB3682544AB4208BF00256D
:109058003F1BA044A144F560E1D14046BDE8F88338
:1090680010B5114C114AA2610223C4E90433104B14
:10907800E361A2644FF400730E4A2362E2640023A2
:1090880010220D49A362E01D6362E362A365636574
:10909800E365226500F02FFB0849204600F02BFB12
:1090A8002023A37110BD00BF6438002060A0020017
:1090B800EC380020DC38002069A002006DA0020016
:1090C800F8B5184C182300FB033503FB0040254472
:1090D800C46A012C0F46164611D003D3022C1BD0AC
:1090E80000240AE02846FFF767FF864205D8324683
:1090F80039462846FFF76EFF34462046F8BD284615
:10910800FFF75AFF8642344628BF044622463946AE
:109118002846FFF75FFFF0E72846BDE8F840FFF76D
:1091280076BF00BF64380020FFF79ABF45DF70475D
:10913800044B187880F001001870034B1B6803B1CA
:1091480018477047F03A0020EC3A0020144B30B42E
:109158001A60144B4FF400140728C3F880411AD83A
:10916800EC2242FA00F5ED0715D54001C0B283F8AC
:10917800150393F8150340090241D2070BD50A4A93
:10918800906830B1136823431360032030BCFFF7A5
:10919800CDBF1C60F9E742F2020030BC704700BF47
:1091A800EC3A002000E100E0E034002010DF7047D6
:1091B80013B5044609496846FEF771FC019808B9D9
:1091C80002B010BDD0E900312046984718B1684672
:1091D800FEF76FFCF2E71120F2E700BF78A002006B
:1091E80013B5044607496846FEF759FC019B0BB9BD
:1091F80002B010BD2046D3E9002190476846FEF72B
:1092080058FCF3E790A002000B4991F816335A096D
:10921800EC231341DB0706D5084B9A683AB94FF49B
:1092280080030B60704742F20200FDF7F9BD1A682F
:1092380042F480021A60704700E100E0E034002048
:10924800F7B5184F3C785CBB174E012520463570A2
:10925800FFF7AEFF112820D02046FFF7C1FF134BC0
:109268001868019002A800F8054DFEF793F8104918
:1092780001A8FFF79BFF0446B0FA80F04009387058
:109288009DF80300FEF7AAF83CB90A4B34701C702D
:10929800FFF7BAFF2846FFF7A3FF204603B0F0BD4B
:1092A8000824FAE7F23A0020F13A002074A00200FC
:1092B800456E0200F33A0020014B1878704700BF52
:1092C800F23A002007B508496846FEF7E8FB019B1B
:1092D80013B903B05DF804FBD3E900209047684652
:1092E800FEF7E7FBF3E700BF84A00200FFF7EABF41
:1092F80060DF704769DF704761DF704730B5114B39
:109308001B7891B0E3B1104D34240DF1020103A88C
:10931800ADF80240FFF7F0FF70B9294601A8FEF743
:10932800BEFB029B002BF0D003A8D3E90021904795
:1093380001A8FEF7BEFBF4E7052801D0FDF770FD94
:1093480011B030BDF43A0020D0A2020030B5054675
:1093580085B00C46002900F099804D4B0B600C221B
:10936800002101A800F094F901238DF80630226845
:109378008DF80450062301A92020ADF80830FFF726
:10938800B9FF60B1FEF7C0FB424A434B43499B1A01
:10939800DB081B04024643F00100FDF7D3FB0C2257
:1093A800002101A800F074F901238DF80530226826
:1093B800002301A940208DF806308DF80730FFF70B
:1093C80099FF60B1FEF7A0FB324A334B34499B1A30
:1093D800DB081B04024643F00100FDF7B3FB0C2237
:1093E800002101A800F054F9002322688DF8043008
:1093F80001A90120FFF77EFF60B1FEF785FB254A32
:10940800254B28499B1ADB081B04024643F0010040
:10941800FDF798FB0C22002101A800F039F94FF460
:10942800B0632268019301A9A120FFF763FF60B12F
:10943800FEF76AFB174A184B1B499B1ADB081B04EB
:10944800024643F00100FDF77DFB0C22002101A834
:1094580000F01EF99DF8043022686FF3000301A99B
:10946800A0208DF80430FFF745FF68B1FEF74CFBEC
:10947800084A094B0D499B1ADB081B04024643F0B6
:109488000100FDF75FFB002005B030BD0E20FBE7B3
:10949800582D0020E097020020980200A4A00200A6
:1094A800EAA0020036A1020082A10200D3A10200B4
:1094B800F8B506460768FFF71BFF3368BB42054649
:1094C8001DD9194B194C1A49E41AE408240444F02C
:1094D80002042046FDF732FB336816493A46204617
:1094E800FDF73AFB4FF080533268D3F80C3112493C
:1094F8009B0203F100539A1A2046FDF723FB25B976
:109508000E4B01221A702846F8BD2846FEF7FCFAD1
:10951800054A064B0A499B1ADB081B04024643F01E
:109528000100FDF70FFBEEE7E0970200209802002C
:1095380026A2020055A2020086A20200F43A0020E8
:10954800B0A202004BDF70471FB50D4C01A8FFF712
:10955800F9FF70B9214602A8FEF7A1FA039B002B78
:10956800F4D00198D3E90021904702A8FEF7A1FAA8
:10957800F4E7052801D0FDF753FC04B010BD00BF87
:10958800E8A202007F2805D8034B185C034B5B5CFC
:10959800184070470020704700A3020080A3020013
:1095A800A0F16103192B98BF20387047A0F141033F
:1095B800192B98BF203070477F2805D8034B185CBB
:1095C800034B5B5C184070470020704700A3020003
:1095D80080A30200A0F16103192B98BF20387047BF
:1095E800A0F14103192B98BF203070477F299ABFFB
:1095F800017001206FF02E0070475AB10A787F2A57
:109608000AD800B10260002119605960501A18BFC9
:1096180001207047002070476FF02E00704700004F
:1096280008B5034B5B689B681B68984708BD00BF7B
:10963800982D002008B50921FFF7F2FF08BD8446E0
:1096480040EA010313F0030F18D18446202A0BD3F4
:109658002DE9F007B1E8F807A0E8F807A2F1200221
:10966800202AF7D2BDE8F007042A07D351F8043BB3
:1096780040F8043BA2F10402042AF7D2002A05D0DC
:1096880011F8013B00F8013B013AF9D160467047F7
:109698008446002A2DD010F0030F04D000F8011BD7
:1096A800013A26D0F7E7C9B241EA012141EA01416E
:1096B800202A12D3A2F120022DE9F0030B460C4612
:1096C8000D460E460F4688468946A0E8FA03203A1A
:1096D800FBD2BDE8F00320320BD0042A05D340F8B2
:1096E800041B043A05D0042AF9D200F8011B013AF8
:1096F800FBD160467047024610F0030F16D111F0F7
:10970800030F13D12DE9F0004FF001374FF08033EC
:1097180051F8044BA4EB070525EA04051D4002D1C6
:1097280042F8044BF4E7A1F10401F0BC11F8013B45
:1097380002F8013B002BF9D1704700F1010110F04C
:10974800030F11D010F8012B002A23D010F0030FBB
:109758000AD010F8012B002A1CD010F0030F03D0F8
:1097680010F8012B002A15D02DE970004FF00132B6
:109778004FF0803350F8044BA4EB020525EA0405AA
:109788001D4000D1F6E7A0F1040070BC10F8012BD1
:0A979800002AFBD1A0EB010070478E
:0897A400417D020000000000FD
:0897AC00F58B02000000000033
:1097B4000593020000000000519502000000000023
:0897C400257E020000000000F8
:1097CC00302E0020F82E0020002F0020382E0020F4
:0497DC001800000071
:1097E000F89E020000000000FE9E02000000000043
:1097F000059F020000000000099F02000000000019
:109800000E9F020000000000E19802000000030328
:10981000F29E0200000000009CA002000000030372
:10982000DCA2020000000303F4A202000000030314
:08983000F499020000000000A1
:109838006898020000000000B19802006C2D00201A
:109848009498020000000000A0980200742D0020E7
:1098580000000000000000000338FDD87047000039
:10986800DD63020049640200D9630200FFFFFFFFC5
:10987800FFFFFFFFFFFFFFFFFFFFFFFF00000000EC
:10988800000000000000D601060100007965020012
:10989800DD65020029650200756172745F6C6F678F
:1098A8005F6261636B656E64007274745F6C6F678E
:1098B8005F6261636B656E64000000002433002002
:1098C8007F000000A43300204261636B656E6473FF
:1098D80020666C7573686564006170700000000034
:1098E8001B99020064990200239902006C990200F6
:1098F800749902007C990200849902008C990200F4
:1099080094990200202530327800202020007C0025
:109918002563001B5B306D002573001B5B313B33F7
:10992800316D0025734C6F67732064726F707065BA
:1099380064202825642925730D0A003C25733E20E0
:1099480025733A200000000000000000B5990200CD
:109958009C990200A4990200A99902001B5B313B63
:1099680033306D001B5B313B33326D001B5B313B89
:1099780033336D001B5B313B33346D001B5B313B74
:1099880033356D001B5B313B33366D001B5B313B60
:1099980033376D007761726E696E6700696E666F46
:1099A80000646562756700466174616C2065727257
:1099B8006F720053797374656D20726573657400F6
:1099C80000000000000000000338FDD87047303167
:1099D800323334353637383941424344454600003E
:1099E800B4970200B4970200040000007077725F19
:1099F8006D676D7400556E6B6E6F776E2065727251
:109A08006F7220636F64650000000000389B0200DD
:109A180001000000449B020002000000629B02005B
:109A280003000000839B020004000000969B0200D4
:109A380005000000A79B020006000000BB9B020077
:109A480007000000D39B020008000000EB9B020007
:109A580009000000039C02000A0000001C9C020090
:109A68000B000000349C02000C0000004B9C02001C
:109A78000D0000005F9C02000E000000719C0200B7
:109A88000F000000809C020010000000949C02005F
:109A980011000000AB9C020012000000BA9C0200FA
:109AA80013000000CF9C020080000000E39C02002D
:109AB80081000000049D020082000000209D020039
:109AC800830000003C9D0200840000005A9D0200B3
:109AD800850000007B9D020086000000A09D02001A
:109AE80090000000B79D020091000000D59D020083
:109AF80092000000F39D020000820000089E020010
:109B080001820000269E020002820000429E02009E
:109B1800008400005E9E020001840000829E020014
:109B280002840000AC9E020003840000D19E020063
:109B38004E52465F53554343455353004E52465F7A
:109B48004552524F525F5356435F48414E444C452D
:109B5800525F4D495353494E47004E52465F455256
:109B6800524F525F534F46544445564943455F4E02
:109B78004F545F454E41424C4544004E52465F4566
:109B880052524F525F494E5445524E414C004E522C
:109B9800465F4552524F525F4E4F5F4D454D004E06
:109BA80052465F4552524F525F4E4F545F464F5593
:109BB8004E44004E52465F4552524F525F4E4F54EC
:109BC8005F535550504F52544544004E52465F45DE
:109BD80052524F525F494E56414C49445F50415290
:109BE800414D004E52465F4552524F525F494E56C4
:109BF800414C49445F5354415445004E52465F45D9
:109C080052524F525F494E56414C49445F4C454E63
:109C1800475448004E52465F4552524F525F494E94
:109C280056414C49445F464C414753004E52465FAB
:109C38004552524F525F494E56414C49445F444148
:109C48005441004E52465F4552524F525F44415470
:109C5800415F53495A45004E52465F4552524F5252
:109C68005F54494D454F5554004E52465F45525238
:109C78004F525F4E554C4C004E52465F4552524F24
:109C8800525F464F5242494444454E004E52465F49
:109C98004552524F525F494E56414C49445F4144E8
:109CA8004452004E52465F4552524F525F425553FE
:109CB80059004E52465F4552524F525F434F4E4EE7
:109CC8005F434F554E54004E52465F4552524F52D5
:109CD8005F5245534F5552434553004E52465F45D8
:109CE80052524F525F4D4F44554C455F4E4F545F53
:109CF800494E495449414C495A4544004E52465FE1
:109D08004552524F525F4D555445585F494E49543C
:109D18005F4641494C4544004E52465F4552524FBA
:109D2800525F4D555445585F4C4F434B5F46414930
:109D38004C4544004E52465F4552524F525F4D5576
:109D48005445585F554E4C4F434B5F4641494C452F
:109D580044004E52465F4552524F525F4D5554454E
:109D6800585F434F4E445F494E49545F4641494C02
:109D78004544004E52465F4552524F525F4D4F4444
:109D8800554C455F414C52454144595F494E4954F1
:109D980049414C495A4544004E52465F4552524F3C
:109DA800525F53544F524147455F46554C4C004E05
:109DB80052465F4552524F525F4150495F4E4F5491
:109DC8005F494D504C454D454E544544004E524612
:109DD8005F4552524F525F464541545552455F4E7A
:109DE8004F545F454E41424C4544004E52465F45F4
:109DF80052524F525F494F5F50454E44494E4700BB
:109E08004E52465F4552524F525F4452565F545726
:109E1800495F4552525F4F56455252554E004E5279
:109E2800465F4552524F525F4452565F5457495FFE
:109E38004552525F414E41434B004E52465F455298
:109E4800524F525F4452565F5457495F4552525FD2
:109E5800444E41434B004E52465F4552524F525F6B
:109E6800424C455F495053505F52585F504B545FC6
:109E78005452554E4341544544004E52465F455254
:109E8800524F525F424C455F495053505F434841DF
:109E98004E4E454C5F414C52454144595F455849E7
:109EA800535453004E52465F4552524F525F424CF4
:109EB800455F495053505F4C494E4B5F44495343AB
:109EC8004F4E4E4543544544004E52465F4552520C
:109ED8004F525F424C455F495053505F5045455281
:109EE8005F52454A454354454400636C6F636B00B9
:109EF800434C4F434B004750494F54450050525331
:109F08000055415254005541525445002D2D2D2DD8
:109F18002D2D2D2D20494E54454C4C4947454E5426
:109F28002054524146464943204C49474854204210
:109F38004541434F4E202D2D2D2D2D2D2D2D0D0A14
:109F4800004C6174697475646520286C6974746C5C
:109F5800652D656E64293A203078253032782030B6
:109F680078253032782030782530327820307825BE
:109F78003032780D0A004C6F6E676974756465201D
:109F8800286C6974746C652D656E64293A20307884
:109F980025303278203078253032782030782530D6
:109FA8003278203078253032780D0A00446972659D
:109FB8006374696F6E2066726F6D20286C697474A3
:109FC8006C652D656E64293A20307825303278200A
:109FD8003078253032780D0A0044697265637469F7
:109FE8006F6E20746F20286C6974746C652D656EB3
:109FF80064293A203078253032782030782530327C
:10A00800780D0A00426561636F6E20747970653A55
:10A01800203078253032780D0A002D2D2D2D2D2D4C
:10A028002D2D2D2D2D2D2D2D2D2D2D2D2D2D2D2D58
:10A038002D2D2D2D2D2D2D2D2D2D2D2D2D2D2D2D48
:10A048002D2D2D2D2D2D2D2D2D2D2D2D0D0A0000D5
:10A0580024380020443800205465726D696E616CA4
:10A068000052545400534547474552000100000729
:10A07800C4970200C497020008000000B4970200C9
:10A08800C497020008000000C4970200CC970200A1
:10A09800080000006E72665F7364680073645F6234
:10A0A8006C655F6366675F736574282920726574E1
:10A0B80075726E6564202573207768656E206174FB
:10A0C80074656D7074696E6720746F207365742091
:10A0D800424C455F434F4E4E5F4346475F474150B2
:10A0E8002E0073645F626C655F6366675F73657497
:10A0F80028292072657475726E656420257320772F
:10A1080068656E20617474656D7074696E6720741B
:10A118006F2073657420424C455F4741505F43464A
:10A12800475F524F4C455F434F554E542E00736462
:10A138005F626C655F6366675F7365742829207268
:10A14800657475726E6564202573207768656E2066
:10A15800617474656D7074696E6720746F207365BF
:10A168007420424C455F434F4D4D4F4E5F43464729
:10A178005F56535F555549442E0073645F626C65A2
:10A188005F6366675F7365742829207265747572EA
:10A198006E6564202573207768656E206174746528
:10A1A8006D7074696E6720746F2073657420424CFB
:10A1B800455F47415454535F4346475F41545452A7
:10A1C8005F5441425F53495A452E0073645F626C85
:10A1D800655F6366675F73657428292072657475A7
:10A1E800726E6564202573207768656E20617474CB
:10A1F800656D7074696E6720746F20736574204292
:10A208004C455F47415454535F4346475F5345525B
:10A21800564943455F4348414E4745442E00496EE1
:10A2280073756666696369656E742052414D206175
:10A238006C6C6F636174656420666F722074686506
:10A2480020536F66744465766963652E00436861C0
:10A258006E6765207468652052414D207374617281
:10A2680074206C6F636174696F6E2066726F6D2005
:10A278003078257820746F20307825782E004D614D
:10A2880078696D756D2052414D2073697A65206635
:10A298006F72206170706C69636174696F6E206998
:10A2A8007320307825782E0073645F626C655F6573
:10A2B8006E61626C6528292072657475726E6564BA
:10A2C8002025732E00000000AC970200B49702000E
:10A2D800080000006E72665F7364685F626C6500F8
:10A2E800A4970200AC970200080000006E72665F37
:10A2F8007364685F736F6300202020202020202073
:10A3080020682828282820202020202020202020DD
:10A31800202020202020202048101010101010107D
:10A328001010101010101010848484848484848485
:10A338008484101010101010108181818181810196
:10A3480001010101010101010101010101010101F5
:10A358000101011010101010108282828282820284
:10A3680002020202020202020202020202020202C5
:10A378000202021010101020000703200417020127
:10A38800085710408000000034A50200F8A302001E
:10A398000CA5020053756E004D6F6E005475650074
:10A3A800576564005468750046726900536174000B
:10A3B800000000004A616E00466562004D6172004F
:10A3C800417072004D6179004A756E004A756C00E3
:10A3D80041756700536570004F6374004E6F7600D7
:10A3E8004465630000000000414D00504D0000002E
:10A3F80030A502002CA502002CA502002CA5020005
:10A408002CA502002CA502002CA502002CA50200F8
:10A418002CA502002CA50200FFFFFFFFFFFFFFFF96
:10A42800FFFFFFFFFFFF00006CA402009CA30200D7
:10A43800A8A40200BCA30200F0A3020050A40200DA
:10A4480000A502005CA40200256D2F25642F257944
:10A458000000000025612025622025652025542064
:10A468002559000053756E646179004D6F6E646103
:10A47800790054756573646179005765646E657316
:10A488006461790054687572736461790046726911
:10A498006461790053617475726461790000000029
:10A4A8004A616E756172790046656272756172798A
:10A4B800004D6172636800417072696C004D61798A
:10A4C800004A756E65004A756C7900417567757349
:10A4D800740053657074656D626572004F63746FC4
:10A4E800626572004E6F76656D62657200446563E1
:10A4F800656D62657200000025483A254D3A25537E
:10A50800000000008D950200A9950200B595020093
:10A51800C1950200DD950200E9950200F59502005B
:10A5280003960200000000002E0000004300000017
:08A53800504F53495800000088
:10A54000000000000020004000000000002000404B
:10A550000000000000000000FF00000000000000FC
:10A56000FF0000000090D0030112FFBEDEA9DAE375
:10A5700041BC9882C12300180104FF00FF000000C5
:10A5800090A3020090A3020090A3020090A30200F7
:04A5900090A3020092
:0400000320006379FD
:00000001FF
